{"abi":[{"type":"constructor","inputs":[],"stateMutability":"nonpayable"},{"type":"function","name":"approve","inputs":[{"name":"to","type":"address","internalType":"address"},{"name":"tokenId","type":"uint256","internalType":"uint256"}],"outputs":[],"stateMutability":"nonpayable"},{"type":"function","name":"balanceOf","inputs":[{"name":"owner","type":"address","internalType":"address"}],"outputs":[{"name":"","type":"uint256","internalType":"uint256"}],"stateMutability":"view"},{"type":"function","name":"batchMint","inputs":[{"name":"to","type":"address","internalType":"address"},{"name":"amount","type":"uint256","internalType":"uint256"}],"outputs":[],"stateMutability":"nonpayable"},{"type":"function","name":"currentTokenId","inputs":[],"outputs":[{"name":"","type":"uint256","internalType":"uint256"}],"stateMutability":"view"},{"type":"function","name":"getApproved","inputs":[{"name":"tokenId","type":"uint256","internalType":"uint256"}],"outputs":[{"name":"","type":"address","internalType":"address"}],"stateMutability":"view"},{"type":"function","name":"isApprovedForAll","inputs":[{"name":"owner","type":"address","internalType":"address"},{"name":"operator","type":"address","internalType":"address"}],"outputs":[{"name":"","type":"bool","internalType":"bool"}],"stateMutability":"view"},{"type":"function","name":"mint","inputs":[{"name":"to","type":"address","internalType":"address"}],"outputs":[{"name":"","type":"uint256","internalType":"uint256"}],"stateMutability":"nonpayable"},{"type":"function","name":"name","inputs":[],"outputs":[{"name":"","type":"string","internalType":"string"}],"stateMutability":"view"},{"type":"function","name":"owner","inputs":[],"outputs":[{"name":"","type":"address","internalType":"address"}],"stateMutability":"view"},{"type":"function","name":"ownerOf","inputs":[{"name":"tokenId","type":"uint256","internalType":"uint256"}],"outputs":[{"name":"","type":"address","internalType":"address"}],"stateMutability":"view"},{"type":"function","name":"renounceOwnership","inputs":[],"outputs":[],"stateMutability":"nonpayable"},{"type":"function","name":"safeTransferFrom","inputs":[{"name":"from","type":"address","internalType":"address"},{"name":"to","type":"address","internalType":"address"},{"name":"tokenId","type":"uint256","internalType":"uint256"}],"outputs":[],"stateMutability":"nonpayable"},{"type":"function","name":"safeTransferFrom","inputs":[{"name":"from","type":"address","internalType":"address"},{"name":"to","type":"address","internalType":"address"},{"name":"tokenId","type":"uint256","internalType":"uint256"},{"name":"data","type":"bytes","internalType":"bytes"}],"outputs":[],"stateMutability":"nonpayable"},{"type":"function","name":"setApprovalForAll","inputs":[{"name":"operator","type":"address","internalType":"address"},{"name":"approved","type":"bool","internalType":"bool"}],"outputs":[],"stateMutability":"nonpayable"},{"type":"function","name":"supportsInterface","inputs":[{"name":"interfaceId","type":"bytes4","internalType":"bytes4"}],"outputs":[{"name":"","type":"bool","internalType":"bool"}],"stateMutability":"view"},{"type":"function","name":"symbol","inputs":[],"outputs":[{"name":"","type":"string","internalType":"string"}],"stateMutability":"view"},{"type":"function","name":"tokenURI","inputs":[{"name":"tokenId","type":"uint256","internalType":"uint256"}],"outputs":[{"name":"","type":"string","internalType":"string"}],"stateMutability":"view"},{"type":"function","name":"transferFrom","inputs":[{"name":"from","type":"address","internalType":"address"},{"name":"to","type":"address","internalType":"address"},{"name":"tokenId","type":"uint256","internalType":"uint256"}],"outputs":[],"stateMutability":"nonpayable"},{"type":"function","name":"transferOwnership","inputs":[{"name":"newOwner","type":"address","internalType":"address"}],"outputs":[],"stateMutability":"nonpayable"},{"type":"event","name":"Approval","inputs":[{"name":"owner","type":"address","indexed":true,"internalType":"address"},{"name":"approved","type":"address","indexed":true,"internalType":"address"},{"name":"tokenId","type":"uint256","indexed":true,"internalType":"uint256"}],"anonymous":false},{"type":"event","name":"ApprovalForAll","inputs":[{"name":"owner","type":"address","indexed":true,"internalType":"address"},{"name":"operator","type":"address","indexed":true,"internalType":"address"},{"name":"approved","type":"bool","indexed":false,"internalType":"bool"}],"anonymous":false},{"type":"event","name":"OwnershipTransferred","inputs":[{"name":"previousOwner","type":"address","indexed":true,"internalType":"address"},{"name":"newOwner","type":"address","indexed":true,"internalType":"address"}],"anonymous":false},{"type":"event","name":"Transfer","inputs":[{"name":"from","type":"address","indexed":true,"internalType":"address"},{"name":"to","type":"address","indexed":true,"internalType":"address"},{"name":"tokenId","type":"uint256","indexed":true,"internalType":"uint256"}],"anonymous":false},{"type":"error","name":"ERC721IncorrectOwner","inputs":[{"name":"sender","type":"address","internalType":"address"},{"name":"tokenId","type":"uint256","internalType":"uint256"},{"name":"owner","type":"address","internalType":"address"}]},{"type":"error","name":"ERC721InsufficientApproval","inputs":[{"name":"operator","type":"address","internalType":"address"},{"name":"tokenId","type":"uint256","internalType":"uint256"}]},{"type":"error","name":"ERC721InvalidApprover","inputs":[{"name":"approver","type":"address","internalType":"address"}]},{"type":"error","name":"ERC721InvalidOperator","inputs":[{"name":"operator","type":"address","internalType":"address"}]},{"type":"error","name":"ERC721InvalidOwner","inputs":[{"name":"owner","type":"address","internalType":"address"}]},{"type":"error","name":"ERC721InvalidReceiver","inputs":[{"name":"receiver","type":"address","internalType":"address"}]},{"type":"error","name":"ERC721InvalidSender","inputs":[{"name":"sender","type":"address","internalType":"address"}]},{"type":"error","name":"ERC721NonexistentToken","inputs":[{"name":"tokenId","type":"uint256","internalType":"uint256"}]},{"type":"error","name":"OwnableInvalidOwner","inputs":[{"name":"owner","type":"address","internalType":"address"}]},{"type":"error","name":"OwnableUnauthorizedAccount","inputs":[{"name":"account","type":"address","internalType":"address"}]}],"bytecode":{"object":"0x608060405234801562000010575f80fd5b50336040518060400160405280600e81526020016d10db185c1bc811d85b594813919560921b81525060405180604001604052806005815260200164434c41504f60d81b815250815f9081620000679190620001a8565b506001620000768282620001a8565b5050506001600160a01b038116620000a757604051631e4fbdf760e01b81525f600482015260240160405180910390fd5b620000b281620000b9565b5062000274565b600680546001600160a01b038381166001600160a01b0319831681179093556040519116919082907f8be0079c531659141344cd1fd0a4f28419497f9722a3daafe3b4186f6b6457e0905f90a35050565b634e487b7160e01b5f52604160045260245ffd5b600181811c908216806200013357607f821691505b6020821081036200015257634e487b7160e01b5f52602260045260245ffd5b50919050565b601f821115620001a357805f5260205f20601f840160051c810160208510156200017f5750805b601f840160051c820191505b81811015620001a0575f81556001016200018b565b50505b505050565b81516001600160401b03811115620001c457620001c46200010a565b620001dc81620001d584546200011e565b8462000158565b602080601f83116001811462000212575f8415620001fa5750858301515b5f19600386901b1c1916600185901b1785556200026c565b5f85815260208120601f198616915b82811015620002425788860151825594840194600190910190840162000221565b50858210156200026057878501515f19600388901b60f8161c191681555b505060018460011b0185555b505050505050565b61110c80620002825f395ff3fe608060405234801561000f575f80fd5b506004361061011b575f3560e01c80636a627842116100a9578063a22cb4651161006e578063a22cb46514610241578063b88d4fde14610254578063c87b56dd14610267578063e985e9c51461027a578063f2fde38b1461028d575f80fd5b80636a627842146101fa57806370a082311461020d578063715018a6146102205780638da5cb5b1461022857806395d89b4114610239575f80fd5b8063095ea7b3116100ef578063095ea7b31461019957806323b872dd146101ae57806342842e0e146101c157806343508b05146101d45780636352211e146101e7575f80fd5b80629a9b7b1461011f57806301ffc9a71461013657806306fdde0314610159578063081812fc1461016e575b5f80fd5b6007545b6040519081526020015b60405180910390f35b610149610144366004610d7c565b6102a0565b604051901515815260200161012d565b6101616102f1565b60405161012d9190610de4565b61018161017c366004610df6565b610380565b6040516001600160a01b03909116815260200161012d565b6101ac6101a7366004610e28565b6103a7565b005b6101ac6101bc366004610e50565b6103b6565b6101ac6101cf366004610e50565b610444565b6101ac6101e2366004610e28565b610463565b6101816101f5366004610df6565b610496565b610123610208366004610e89565b6104a0565b61012361021b366004610e89565b6104c3565b6101ac610508565b6006546001600160a01b0316610181565b61016161051b565b6101ac61024f366004610ea2565b61052a565b6101ac610262366004610eef565b610535565b610161610275366004610df6565b61054d565b610149610288366004610fc4565b6105be565b6101ac61029b366004610e89565b6105eb565b5f6001600160e01b031982166380ac58cd60e01b14806102d057506001600160e01b03198216635b5e139f60e01b145b806102eb57506301ffc9a760e01b6001600160e01b03198316145b92915050565b60605f80546102ff90610ff5565b80601f016020809104026020016040519081016040528092919081815260200182805461032b90610ff5565b80156103765780601f1061034d57610100808354040283529160200191610376565b820191905f5260205f20905b81548152906001019060200180831161035957829003601f168201915b5050505050905090565b5f61038a82610628565b505f828152600460205260409020546001600160a01b03166102eb565b6103b2828233610660565b5050565b6001600160a01b0382166103e457604051633250574960e11b81525f60048201526024015b60405180910390fd5b5f6103f083833361066d565b9050836001600160a01b0316816001600160a01b03161461043e576040516364283d7b60e01b81526001600160a01b03808616600483015260248201849052821660448201526064016103db565b50505050565b61045e83838360405180602001604052805f815250610535565b505050565b5f5b8181101561045e57600780545f918261047d8361102d565b91905055905061048d848261075f565b50600101610465565b5f6102eb82610628565b600780545f91829190826104b38361102d565b9190505590506102eb838261075f565b5f6001600160a01b0382166104ed576040516322718ad960e21b81525f60048201526024016103db565b506001600160a01b03165f9081526003602052604090205490565b610510610778565b6105195f6107a5565b565b6060600180546102ff90610ff5565b6103b23383836107f6565b6105408484846103b6565b61043e3385858585610894565b606061055882610628565b505f61056e60408051602081019091525f815290565b90505f81511161058c5760405180602001604052805f8152506105b7565b80610596846109bc565b6040516020016105a7929190611051565b6040516020818303038152906040525b9392505050565b6001600160a01b039182165f90815260056020908152604080832093909416825291909152205460ff1690565b6105f3610778565b6001600160a01b03811661061c57604051631e4fbdf760e01b81525f60048201526024016103db565b610625816107a5565b50565b5f818152600260205260408120546001600160a01b0316806102eb57604051637e27328960e01b8152600481018490526024016103db565b61045e8383836001610a4c565b5f828152600260205260408120546001600160a01b039081169083161561069957610699818486610b50565b6001600160a01b038116156106d3576106b45f855f80610a4c565b6001600160a01b0381165f90815260036020526040902080545f190190555b6001600160a01b03851615610701576001600160a01b0385165f908152600360205260409020805460010190555b5f8481526002602052604080822080546001600160a01b0319166001600160a01b0389811691821790925591518793918516917fddf252ad1be2c89b69c2b068fc378daa952ba7f163c4a11628f55a4df523b3ef91a4949350505050565b6103b2828260405180602001604052805f815250610bb4565b6006546001600160a01b031633146105195760405163118cdaa760e01b81523360048201526024016103db565b600680546001600160a01b038381166001600160a01b0319831681179093556040519116919082907f8be0079c531659141344cd1fd0a4f28419497f9722a3daafe3b4186f6b6457e0905f90a35050565b6001600160a01b03821661082857604051630b61174360e31b81526001600160a01b03831660048201526024016103db565b6001600160a01b038381165f81815260056020908152604080832094871680845294825291829020805460ff191686151590811790915591519182527f17307eab39ab6107e8899845ad3d59bd9653f200f220920489ca2b5937696c31910160405180910390a3505050565b6001600160a01b0383163b156109b557604051630a85bd0160e11b81526001600160a01b0384169063150b7a02906108d690889088908790879060040161107f565b6020604051808303815f875af1925050508015610910575060408051601f3d908101601f1916820190925261090d918101906110bb565b60015b610977573d80801561093d576040519150601f19603f3d011682016040523d82523d5f602084013e610942565b606091505b5080515f0361096f57604051633250574960e11b81526001600160a01b03851660048201526024016103db565b805160208201fd5b6001600160e01b03198116630a85bd0160e11b146109b357604051633250574960e11b81526001600160a01b03851660048201526024016103db565b505b5050505050565b60605f6109c883610bcb565b60010190505f8167ffffffffffffffff8111156109e7576109e7610edb565b6040519080825280601f01601f191660200182016040528015610a11576020820181803683370190505b5090508181016020015b5f19016f181899199a1a9b1b9c1cb0b131b232b360811b600a86061a8153600a8504945084610a1b57509392505050565b8080610a6057506001600160a01b03821615155b15610b21575f610a6f84610628565b90506001600160a01b03831615801590610a9b5750826001600160a01b0316816001600160a01b031614155b8015610aae5750610aac81846105be565b155b15610ad75760405163a9fbf51f60e01b81526001600160a01b03841660048201526024016103db565b8115610b1f5783856001600160a01b0316826001600160a01b03167f8c5be1e5ebec7d5bd14f71427d1e84f3dd0314c0f7b2291e5b200ac8c7c3b92560405160405180910390a45b505b50505f90815260046020526040902080546001600160a01b0319166001600160a01b0392909216919091179055565b610b5b838383610ca2565b61045e576001600160a01b038316610b8957604051637e27328960e01b8152600481018290526024016103db565b60405163177e802f60e01b81526001600160a01b0383166004820152602481018290526044016103db565b610bbe8383610d06565b61045e335f858585610894565b5f8072184f03e93ff9f4daa797ed6e38ed64bf6a1f0160401b8310610c095772184f03e93ff9f4daa797ed6e38ed64bf6a1f0160401b830492506040015b6d04ee2d6d415b85acef81000000008310610c35576d04ee2d6d415b85acef8100000000830492506020015b662386f26fc100008310610c5357662386f26fc10000830492506010015b6305f5e1008310610c6b576305f5e100830492506008015b6127108310610c7f57612710830492506004015b60648310610c91576064830492506002015b600a83106102eb5760010192915050565b5f6001600160a01b03831615801590610cfe5750826001600160a01b0316846001600160a01b03161480610cdb5750610cdb84846105be565b80610cfe57505f828152600460205260409020546001600160a01b038481169116145b949350505050565b6001600160a01b038216610d2f57604051633250574960e11b81525f60048201526024016103db565b5f610d3b83835f61066d565b90506001600160a01b0381161561045e576040516339e3563760e11b81525f60048201526024016103db565b6001600160e01b031981168114610625575f80fd5b5f60208284031215610d8c575f80fd5b81356105b781610d67565b5f5b83811015610db1578181015183820152602001610d99565b50505f910152565b5f8151808452610dd0816020860160208601610d97565b601f01601f19169290920160200192915050565b602081525f6105b76020830184610db9565b5f60208284031215610e06575f80fd5b5035919050565b80356001600160a01b0381168114610e23575f80fd5b919050565b5f8060408385031215610e39575f80fd5b610e4283610e0d565b946020939093013593505050565b5f805f60608486031215610e62575f80fd5b610e6b84610e0d565b9250610e7960208501610e0d565b9150604084013590509250925092565b5f60208284031215610e99575f80fd5b6105b782610e0d565b5f8060408385031215610eb3575f80fd5b610ebc83610e0d565b915060208301358015158114610ed0575f80fd5b809150509250929050565b634e487b7160e01b5f52604160045260245ffd5b5f805f8060808587031215610f02575f80fd5b610f0b85610e0d565b9350610f1960208601610e0d565b925060408501359150606085013567ffffffffffffffff80821115610f3c575f80fd5b818701915087601f830112610f4f575f80fd5b813581811115610f6157610f61610edb565b604051601f8201601f19908116603f01168101908382118183101715610f8957610f89610edb565b816040528281528a6020848701011115610fa1575f80fd5b826020860160208301375f60208483010152809550505050505092959194509250565b5f8060408385031215610fd5575f80fd5b610fde83610e0d565b9150610fec60208401610e0d565b90509250929050565b600181811c9082168061100957607f821691505b60208210810361102757634e487b7160e01b5f52602260045260245ffd5b50919050565b5f6001820161104a57634e487b7160e01b5f52601160045260245ffd5b5060010190565b5f8351611062818460208801610d97565b835190830190611076818360208801610d97565b01949350505050565b6001600160a01b03858116825284166020820152604081018390526080606082018190525f906110b190830184610db9565b9695505050505050565b5f602082840312156110cb575f80fd5b81516105b781610d6756fea2646970667358221220692fac04a4223fc032ac81889194663cd46a9179b95329bcdf538521945131a964736f6c63430008180033","linkReferences":{}},"methodIdentifiers":{"approve(address,uint256)":"095ea7b3","balanceOf(address)":"70a08231","batchMint(address,uint256)":"43508b05","currentTokenId()":"009a9b7b","getApproved(uint256)":"081812fc","isApprovedForAll(address,address)":"e985e9c5","mint(address)":"6a627842","name()":"06fdde03","owner()":"8da5cb5b","ownerOf(uint256)":"6352211e","renounceOwnership()":"715018a6","safeTransferFrom(address,address,uint256)":"42842e0e","safeTransferFrom(address,address,uint256,bytes)":"b88d4fde","setApprovalForAll(address,bool)":"a22cb465","supportsInterface(bytes4)":"01ffc9a7","symbol()":"95d89b41","tokenURI(uint256)":"c87b56dd","transferFrom(address,address,uint256)":"23b872dd","transferOwnership(address)":"f2fde38b"},"id":37}