{"abi":[{"type":"constructor","inputs":[],"stateMutability":"nonpayable"},{"type":"function","name":"getEmaPrice","inputs":[{"name":"id","type":"bytes32","internalType":"bytes32"}],"outputs":[{"name":"price","type":"tuple","internalType":"struct IPythOracle.Price","components":[{"name":"price","type":"int64","internalType":"int64"},{"name":"conf","type":"uint64","internalType":"uint64"},{"name":"expo","type":"int32","internalType":"int32"},{"name":"publishTime","type":"uint256","internalType":"uint256"}]}],"stateMutability":"view"},{"type":"function","name":"getPriceAtTimestamp","inputs":[{"name":"id","type":"bytes32","internalType":"bytes32"},{"name":"timestamp","type":"uint256","internalType":"uint256"}],"outputs":[{"name":"price","type":"tuple","internalType":"struct IPythOracle.Price","components":[{"name":"price","type":"int64","internalType":"int64"},{"name":"conf","type":"uint64","internalType":"uint64"},{"name":"expo","type":"int32","internalType":"int32"},{"name":"publishTime","type":"uint256","internalType":"uint256"}]}],"stateMutability":"view"},{"type":"function","name":"getPriceFeed","inputs":[{"name":"id","type":"bytes32","internalType":"bytes32"}],"outputs":[{"name":"priceFeed","type":"tuple","internalType":"struct MockPyth.PriceFeed","components":[{"name":"id","type":"bytes32","internalType":"bytes32"},{"name":"price","type":"tuple","internalType":"struct IPythOracle.Price","components":[{"name":"price","type":"int64","internalType":"int64"},{"name":"conf","type":"uint64","internalType":"uint64"},{"name":"expo","type":"int32","internalType":"int32"},{"name":"publishTime","type":"uint256","internalType":"uint256"}]},{"name":"emaPrice","type":"tuple","internalType":"struct IPythOracle.Price","components":[{"name":"price","type":"int64","internalType":"int64"},{"name":"conf","type":"uint64","internalType":"uint64"},{"name":"expo","type":"int32","internalType":"int32"},{"name":"publishTime","type":"uint256","internalType":"uint256"}]}]}],"stateMutability":"view"},{"type":"function","name":"getPriceNoOlderThan","inputs":[{"name":"id","type":"bytes32","internalType":"bytes32"},{"name":"age","type":"uint256","internalType":"uint256"}],"outputs":[{"name":"price","type":"tuple","internalType":"struct IPythOracle.Price","components":[{"name":"price","type":"int64","internalType":"int64"},{"name":"conf","type":"uint64","internalType":"uint64"},{"name":"expo","type":"int32","internalType":"int32"},{"name":"publishTime","type":"uint256","internalType":"uint256"}]}],"stateMutability":"view"},{"type":"function","name":"getPriceUnsafe","inputs":[{"name":"id","type":"bytes32","internalType":"bytes32"}],"outputs":[{"name":"price","type":"tuple","internalType":"struct IPythOracle.Price","components":[{"name":"price","type":"int64","internalType":"int64"},{"name":"conf","type":"uint64","internalType":"uint64"},{"name":"expo","type":"int32","internalType":"int32"},{"name":"publishTime","type":"uint256","internalType":"uint256"}]}],"stateMutability":"view"},{"type":"function","name":"getUpdateFee","inputs":[{"name":"updateData","type":"bytes[]","internalType":"bytes[]"}],"outputs":[{"name":"feeAmount","type":"uint256","internalType":"uint256"}],"stateMutability":"view"},{"type":"function","name":"priceFeedExists","inputs":[{"name":"id","type":"bytes32","internalType":"bytes32"}],"outputs":[{"name":"exists","type":"bool","internalType":"bool"}],"stateMutability":"view"},{"type":"function","name":"setPrice","inputs":[{"name":"id","type":"bytes32","internalType":"bytes32"},{"name":"price","type":"int64","internalType":"int64"},{"name":"conf","type":"uint64","internalType":"uint64"},{"name":"expo","type":"int32","internalType":"int32"},{"name":"publishTime","type":"uint256","internalType":"uint256"}],"outputs":[],"stateMutability":"nonpayable"},{"type":"function","name":"setPrices","inputs":[{"name":"ids","type":"bytes32[]","internalType":"bytes32[]"},{"name":"prices","type":"int64[]","internalType":"int64[]"},{"name":"confs","type":"uint64[]","internalType":"uint64[]"},{"name":"expo","type":"int32","internalType":"int32"},{"name":"publishTime","type":"uint256","internalType":"uint256"}],"outputs":[],"stateMutability":"nonpayable"},{"type":"function","name":"setUpdateFee","inputs":[{"name":"newFee","type":"uint256","internalType":"uint256"}],"outputs":[],"stateMutability":"nonpayable"},{"type":"function","name":"updateFee","inputs":[],"outputs":[{"name":"","type":"uint256","internalType":"uint256"}],"stateMutability":"view"},{"type":"function","name":"updatePriceFeeds","inputs":[{"name":"updateData","type":"bytes[]","internalType":"bytes[]"}],"outputs":[],"stateMutability":"payable"},{"type":"event","name":"PriceUpdated","inputs":[{"name":"id","type":"bytes32","indexed":true,"internalType":"bytes32"},{"name":"price","type":"int64","indexed":false,"internalType":"int64"},{"name":"conf","type":"uint64","indexed":false,"internalType":"uint64"},{"name":"publishTime","type":"uint256","indexed":false,"internalType":"uint256"}],"anonymous":false}],"bytecode":{"object":"0x608060405234801561000f575f80fd5b505f600255611042806100215f395ff3fe6080604052600436106100a5575f3560e01c8063b5dcc91111610062578063b5dcc91114610188578063b5ec0261146101a7578063d4624850146101e3578063d47eed4514610202578063ef9e5e2814610221578063fe02dfd614610234575f80fd5b80636a2e770f146100a9578063758cdcf0146100ca5780638c0adf62146100f257806396834ad31461011e578063a4ae35e01461014a578063b528d39214610169575b5f80fd5b3480156100b4575f80fd5b506100c86100c3366004610cec565b600255565b005b3480156100d5575f80fd5b506100df60025481565b6040519081526020015b60405180910390f35b3480156100fd575f80fd5b5061011161010c366004610cec565b610253565b6040516100e99190610d38565b348015610129575f80fd5b5061013d610138366004610cec565b610387565b6040516100e99190610d6e565b348015610155575f80fd5b5061013d610164366004610d7c565b61042e565b348015610174575f80fd5b5061013d610183366004610d7c565b610524565b348015610193575f80fd5b5061013d6101a2366004610cec565b6105eb565b3480156101b2575f80fd5b506101d36101c1366004610cec565b5f818152602081905260409020541490565b60405190151581526020016100e9565b3480156101ee575f80fd5b506100c86101fd366004610df9565b610693565b34801561020d575f80fd5b506100df61021c366004610ea4565b6109e2565b6100c861022f366004610ea4565b6109f9565b34801561023f575f80fd5b506100c861024e366004610f09565b610a42565b6102b060408051606080820183525f808352835160808101855281815260208181018390529481018290529182015290918201908152604080516080810182525f8082526020828101829052928201819052606082015291015290565b5f8281526020819052604090205482146102e55760405162461bcd60e51b81526004016102dc90610f5a565b60405180910390fd5b505f9081526020818152604091829020825160608082018552825482528451608080820187526001850154600781810b84526001600160401b03600160401b8084048216868b0152600160801b93849004600390810b878d015260028a015487890152888b01969096528a519485018b52858901549283900b855282041697830197909752909504900b84860152600490920154918301919091529182015290565b604080516080810182525f808252602080830182905282840182905260608301829052848252819052919091205482146103d35760405162461bcd60e51b81526004016102dc90610f5a565b505f908152602081815260409182902082516080810184526001820154600781900b82526001600160401b03600160401b82041693820193909352600160801b90920460030b92820192909252600290910154606082015290565b604080516080810182525f8082526020808301829052828401829052606083018290528582528190529190912054831461047a5760405162461bcd60e51b81526004016102dc90610f5a565b505f828152602081815260409182902082516080810184526001820154600781900b82526001600160401b03600160401b82041693820193909352600160801b90920460030b928201929092526002909101546060820181905282906104e09042610f9c565b111561051e5760405162461bcd60e51b815260206004820152600d60248201526c141c9a58d9481d1bdbc81bdb19609a1b60448201526064016102dc565b92915050565b604080516080810182525f808252602082018190529181018290526060810191909152505f82815260016020818152604080842085855282529283902083516080810185528154600781900b82526001600160401b03600160401b82041693820193909352600160801b90920460030b9382019390935291015460608201819052821461051e5760405162461bcd60e51b815260206004820152601560248201527404e6f2070726963652061742074696d657374616d7605c1b60448201526064016102dc565b604080516080810182525f808252602080830182905282840182905260608301829052848252819052919091205482146106375760405162461bcd60e51b81526004016102dc90610f5a565b505f90815260208181526040918290208251608081018452600380830154600781900b83526001600160401b03600160401b82041694830194909452600160801b90930490920b92820192909252600490910154606082015290565b86851480156106a157508483145b6106e55760405162461bcd60e51b8152602060048201526015602482015274082e4e4c2f240d8cadccee8d040dad2e6dac2e8c6d605b1b60448201526064016102dc565b5f5b878110156109d7575f604051806080016040528089898581811061070d5761070d610faf565b90506020020160208101906107229190610fc3565b60070b815260200187878581811061073c5761073c610faf565b90506020020160208101906107519190610fdc565b6001600160401b031681526020018560030b815260200184815250905060405180606001604052808b8b8581811061078b5761078b610faf565b905060200201358152602001828152602001828152505f808c8c868181106107b5576107b5610faf565b602090810292909201358352508181019290925260409081015f908120845181558484015180516001808401805484890151858901516001600160401b039586166001600160801b031993841617600160401b92871683021763ffffffff60801b19908116600160801b63ffffffff93841681029190911790955560609788015160028a01559b8a0151805160038a0180549d8301519c8301519189169d9095169c909c179a909616909102989098179099169790961690950295909517909555929093015160049092019190915582918c8c8681811061089857610898610faf565b602090810292909201358352508181019290925260409081015f908120878252835281902083518154938501519285015163ffffffff16600160801b0263ffffffff60801b196001600160401b03948516600160401b026001600160801b03199096169490921693909317939093179290921617815560609091015160019091015589898381811061092c5761092c610faf565b905060200201357fe0f61550b86366873982106e15d81908b4e8659648b784929e562bdde40dd0dc89898581811061096657610966610faf565b905060200201602081019061097b9190610fc3565b88888681811061098d5761098d610faf565b90506020020160208101906109a29190610fdc565b6040805160079390930b83526001600160401b039091166020830152810186905260600160405180910390a2506001016106e7565b505050505050505050565b6002545f906109f2908390610ff5565b9392505050565b600254341015610a3e5760405162461bcd60e51b815260206004820152601060248201526f496e73756666696369656e742066656560801b60448201526064016102dc565b5050565b5f60405180608001604052808660070b8152602001856001600160401b031681526020018460030b81526020018381525090506040518060600160405280878152602001828152602001828152505f808881526020019081526020015f205f820151815f01556020820151816001015f820151815f015f6101000a8154816001600160401b03021916908360070b6001600160401b031602179055506020820151815f0160086101000a8154816001600160401b0302191690836001600160401b031602179055506040820151815f0160106101000a81548163ffffffff021916908360030b63ffffffff1602179055506060820151816001015550506040820151816003015f820151815f015f6101000a8154816001600160401b03021916908360070b6001600160401b031602179055506020820151815f0160086101000a8154816001600160401b0302191690836001600160401b031602179055506040820151815f0160106101000a81548163ffffffff021916908360030b63ffffffff1602179055506060820151816001015550509050508060015f8881526020019081526020015f205f8481526020019081526020015f205f820151815f015f6101000a8154816001600160401b03021916908360070b6001600160401b031602179055506020820151815f0160086101000a8154816001600160401b0302191690836001600160401b031602179055506040820151815f0160106101000a81548163ffffffff021916908360030b63ffffffff16021790555060608201518160010155905050857fe0f61550b86366873982106e15d81908b4e8659648b784929e562bdde40dd0dc868685604051610cdc9392919060079390930b83526001600160401b03919091166020830152604082015260600190565b60405180910390a2505050505050565b5f60208284031215610cfc575f80fd5b5035919050565b805160070b82526001600160401b036020820151166020830152604081015160030b6040830152606081015160608301525050565b81518152602080830151610120830191610d5490840182610d03565b506040830151610d6760a0840182610d03565b5092915050565b6080810161051e8284610d03565b5f8060408385031215610d8d575f80fd5b50508035926020909101359150565b5f8083601f840112610dac575f80fd5b5081356001600160401b03811115610dc2575f80fd5b6020830191508360208260051b8501011115610ddc575f80fd5b9250929050565b8035600381900b8114610df4575f80fd5b919050565b5f805f805f805f8060a0898b031215610e10575f80fd5b88356001600160401b0380821115610e26575f80fd5b610e328c838d01610d9c565b909a50985060208b0135915080821115610e4a575f80fd5b610e568c838d01610d9c565b909850965060408b0135915080821115610e6e575f80fd5b50610e7b8b828c01610d9c565b9095509350610e8e905060608a01610de3565b9150608089013590509295985092959890939650565b5f8060208385031215610eb5575f80fd5b82356001600160401b03811115610eca575f80fd5b610ed685828601610d9c565b90969095509350505050565b8035600781900b8114610df4575f80fd5b80356001600160401b0381168114610df4575f80fd5b5f805f805f60a08688031215610f1d575f80fd5b85359450610f2d60208701610ee2565b9350610f3b60408701610ef3565b9250610f4960608701610de3565b949793965091946080013592915050565b602080825260149082015273141c9a58d94819995959081b9bdd08199bdd5b9960621b604082015260600190565b634e487b7160e01b5f52601160045260245ffd5b8181038181111561051e5761051e610f88565b634e487b7160e01b5f52603260045260245ffd5b5f60208284031215610fd3575f80fd5b6109f282610ee2565b5f60208284031215610fec575f80fd5b6109f282610ef3565b808202811582820484141761051e5761051e610f8856fea264697066735822122087b92debfb09982b0e92b3289d9932ec18ac4cdf78261d60eba0b19674224f5164736f6c63430008180033","linkReferences":{}},"methodIdentifiers":{"getEmaPrice(bytes32)":"b5dcc911","getPriceAtTimestamp(bytes32,uint256)":"b528d392","getPriceFeed(bytes32)":"8c0adf62","getPriceNoOlderThan(bytes32,uint256)":"a4ae35e0","getPriceUnsafe(bytes32)":"96834ad3","getUpdateFee(bytes[])":"d47eed45","priceFeedExists(bytes32)":"b5ec0261","setPrice(bytes32,int64,uint64,int32,uint256)":"fe02dfd6","setPrices(bytes32[],int64[],uint64[],int32,uint256)":"d4624850","setUpdateFee(uint256)":"6a2e770f","updateFee()":"758cdcf0","updatePriceFeeds(bytes[])":"ef9e5e28"},"id":43}