{"abi":[{"type":"constructor","inputs":[],"stateMutability":"nonpayable"},{"type":"function","name":"addAsset","inputs":[{"name":"symbol","type":"bytes32","internalType":"bytes32"},{"name":"pythFeedId","type":"bytes32","internalType":"bytes32"},{"name":"cost","type":"uint16","internalType":"uint16"},{"name":"name","type":"string","internalType":"string"}],"outputs":[],"stateMutability":"nonpayable"},{"type":"function","name":"assetSymbols","inputs":[{"name":"","type":"uint256","internalType":"uint256"}],"outputs":[{"name":"","type":"bytes32","internalType":"bytes32"}],"stateMutability":"view"},{"type":"function","name":"assets","inputs":[{"name":"","type":"bytes32","internalType":"bytes32"}],"outputs":[{"name":"pythFeedId","type":"bytes32","internalType":"bytes32"},{"name":"cost","type":"uint16","internalType":"uint16"},{"name":"enabled","type":"bool","internalType":"bool"},{"name":"name","type":"string","internalType":"string"}],"stateMutability":"view"},{"type":"function","name":"getAllAssets","inputs":[],"outputs":[{"name":"","type":"bytes32[]","internalType":"bytes32[]"}],"stateMutability":"view"},{"type":"function","name":"getAsset","inputs":[{"name":"symbol","type":"bytes32","internalType":"bytes32"}],"outputs":[{"name":"","type":"tuple","internalType":"struct AssetRegistry.Asset","components":[{"name":"pythFeedId","type":"bytes32","internalType":"bytes32"},{"name":"cost","type":"uint16","internalType":"uint16"},{"name":"enabled","type":"bool","internalType":"bool"},{"name":"name","type":"string","internalType":"string"}]}],"stateMutability":"view"},{"type":"function","name":"getEnabledAssets","inputs":[],"outputs":[{"name":"","type":"bytes32[]","internalType":"bytes32[]"}],"stateMutability":"view"},{"type":"function","name":"getPortfolioCost","inputs":[{"name":"symbols","type":"bytes32[]","internalType":"bytes32[]"}],"outputs":[{"name":"","type":"uint256","internalType":"uint256"}],"stateMutability":"view"},{"type":"function","name":"owner","inputs":[],"outputs":[{"name":"","type":"address","internalType":"address"}],"stateMutability":"view"},{"type":"function","name":"renounceOwnership","inputs":[],"outputs":[],"stateMutability":"nonpayable"},{"type":"function","name":"symbolExists","inputs":[{"name":"","type":"bytes32","internalType":"bytes32"}],"outputs":[{"name":"","type":"bool","internalType":"bool"}],"stateMutability":"view"},{"type":"function","name":"toggleAsset","inputs":[{"name":"symbol","type":"bytes32","internalType":"bytes32"},{"name":"enabled","type":"bool","internalType":"bool"}],"outputs":[],"stateMutability":"nonpayable"},{"type":"function","name":"transferOwnership","inputs":[{"name":"newOwner","type":"address","internalType":"address"}],"outputs":[],"stateMutability":"nonpayable"},{"type":"function","name":"updateAsset","inputs":[{"name":"symbol","type":"bytes32","internalType":"bytes32"},{"name":"pythFeedId","type":"bytes32","internalType":"bytes32"},{"name":"cost","type":"uint16","internalType":"uint16"},{"name":"enabled","type":"bool","internalType":"bool"}],"outputs":[],"stateMutability":"nonpayable"},{"type":"function","name":"validatePortfolio","inputs":[{"name":"symbols","type":"bytes32[]","internalType":"bytes32[]"}],"outputs":[{"name":"isValid","type":"bool","internalType":"bool"},{"name":"totalCost","type":"uint256","internalType":"uint256"}],"stateMutability":"view"},{"type":"event","name":"AssetAdded","inputs":[{"name":"symbol","type":"bytes32","indexed":true,"internalType":"bytes32"},{"name":"pythFeedId","type":"bytes32","indexed":false,"internalType":"bytes32"},{"name":"cost","type":"uint16","indexed":false,"internalType":"uint16"},{"name":"name","type":"string","indexed":false,"internalType":"string"}],"anonymous":false},{"type":"event","name":"AssetToggled","inputs":[{"name":"symbol","type":"bytes32","indexed":true,"internalType":"bytes32"},{"name":"enabled","type":"bool","indexed":false,"internalType":"bool"}],"anonymous":false},{"type":"event","name":"AssetUpdated","inputs":[{"name":"symbol","type":"bytes32","indexed":true,"internalType":"bytes32"},{"name":"pythFeedId","type":"bytes32","indexed":false,"internalType":"bytes32"},{"name":"cost","type":"uint16","indexed":false,"internalType":"uint16"},{"name":"enabled","type":"bool","indexed":false,"internalType":"bool"}],"anonymous":false},{"type":"event","name":"OwnershipTransferred","inputs":[{"name":"previousOwner","type":"address","indexed":true,"internalType":"address"},{"name":"newOwner","type":"address","indexed":true,"internalType":"address"}],"anonymous":false},{"type":"error","name":"OwnableInvalidOwner","inputs":[{"name":"owner","type":"address","internalType":"address"}]},{"type":"error","name":"OwnableUnauthorizedAccount","inputs":[{"name":"account","type":"address","internalType":"address"}]}],"bytecode":{"object":"0x608060405234801561000f575f80fd5b50338061003557604051631e4fbdf760e01b81525f600482015260240160405180910390fd5b61003e81610044565b50610093565b5f80546001600160a01b038381166001600160a01b0319831681178455604051919092169283917f8be0079c531659141344cd1fd0a4f28419497f9722a3daafe3b4186f6b6457e09190a35050565b611295806100a05f395ff3fe608060405234801561000f575f80fd5b50600436106100e5575f3560e01c8063715018a6116100885780639fda5b66116100635780639fda5b66146101f2578063b6a0a1f314610215578063d9b60e5414610228578063f2fde38b1461023b575f80fd5b8063715018a6146101a65780638da5cb5b146101ae5780639f11194f146101c8575f80fd5b80632acada4d116100c35780632acada4d146101565780632cc3ce801461016b5780633b1270881461018b57806369efa86314610193575f80fd5b806302515835146100e95780630838aebd1461012057806325c8a5ff14610135575b5f80fd5b61010b6100f7366004610d75565b60036020525f908152604090205460ff1681565b60405190151581526020015b60405180910390f35b61013361012e366004610da0565b61024e565b005b610148610143366004610d75565b6102f3565b604051908152602001610117565b61015e610312565b6040516101179190610dca565b61017e610179366004610d75565b610368565b6040516101179190610e50565b61015e610496565b6101486101a1366004610e96565b6105eb565b610133610711565b5f546040516001600160a01b039091168152602001610117565b6101db6101d6366004610e96565b610724565b604080519215158352602083019190915201610117565b610205610200366004610d75565b610886565b6040516101179493929190610f05565b610133610223366004610f4a565b61093f565b610133610236366004610fd6565b610b7a565b610133610249366004611019565b610cbd565b610256610cfa565b5f8281526003602052604090205460ff1661028c5760405162461bcd60e51b815260040161028390611046565b60405180910390fd5b5f82815260016020819052604091829020018054831515620100000262ff0000199091161790555182907f719af64513d5a1594144438ab36d36309d0876815b4e7b611fbcd21e463d48f4906102e790841515815260200190565b60405180910390a25050565b60028181548110610302575f80fd5b5f91825260209091200154905081565b6060600280548060200260200160405190810160405280929190818152602001828054801561035e57602002820191905f5260205f20905b81548152602001906001019080831161034a575b5050505050905090565b604080516080810182525f80825260208201819052918101919091526060808201525f8281526003602052604090205460ff166103b75760405162461bcd60e51b815260040161028390611046565b5f828152600160208181526040928390208351608081018552815481529281015461ffff8116928401929092526201000090910460ff1615159282019290925260028201805491929160608401919061040f90611074565b80601f016020809104026020016040519081016040528092919081815260200182805461043b90611074565b80156104865780601f1061045d57610100808354040283529160200191610486565b820191905f5260205f20905b81548152906001019060200180831161046957829003601f168201915b5050505050815250509050919050565b60605f805b6002548110156104fd5760015f600283815481106104bb576104bb6110ac565b905f5260205f20015481526020019081526020015f2060010160029054906101000a900460ff16156104f557816104f1816110d4565b9250505b60010161049b565b505f8167ffffffffffffffff811115610518576105186110ec565b604051908082528060200260200182016040528015610541578160200160208202803683370190505b5090505f805b6002548110156105e25760015f60028381548110610567576105676110ac565b905f5260205f20015481526020019081526020015f2060010160029054906101000a900460ff16156105da57600281815481106105a6576105a66110ac565b905f5260205f2001548383815181106105c1576105c16110ac565b6020908102919091010152816105d6816110d4565b9250505b600101610547565b50909392505050565b5f80805b838110156107075760035f86868481811061060c5761060c6110ac565b602090810292909201358352508101919091526040015f205460ff166106445760405162461bcd60e51b815260040161028390611046565b60015f868684818110610659576106596110ac565b9050602002013581526020019081526020015f2060010160029054906101000a900460ff166106be5760405162461bcd60e51b8152602060048201526011602482015270105cdcd95d081b9bdd08195b98589b1959607a1b6044820152606401610283565b60015f8686848181106106d3576106d36110ac565b602090810292909201358352508101919091526040015f20600101546106fd9061ffff1683611100565b91506001016105ef565b5090505b92915050565b610719610cfa565b6107225f610d26565b565b5f806007831461073857505f90508061087f565b505f805b838110156108765760035f868684818110610759576107596110ac565b602090810292909201358352508101919091526040015f205460ff1615806107b8575060015f868684818110610791576107916110ac565b9050602002013581526020019081526020015f2060010160029054906101000a900460ff16155b156107c9575f80925092505061087f565b5f6107d5826001611100565b90505b8481101561082c578585828181106107f2576107f26110ac565b9050602002013586868481811061080b5761080b6110ac565b9050602002013503610824575f8093509350505061087f565b6001016107d8565b5060015f868684818110610842576108426110ac565b602090810292909201358352508101919091526040015f206001015461086c9061ffff1683611100565b915060010161073c565b50606481111591505b9250929050565b600160208190525f918252604090912080549181015460028201805461ffff8316936201000090930460ff169291906108be90611074565b80601f01602080910402602001604051908101604052809291908181526020018280546108ea90611074565b80156109355780601f1061090c57610100808354040283529160200191610935565b820191905f5260205f20905b81548152906001019060200180831161091857829003601f168201915b5050505050905084565b610947610cfa565b5f8581526003602052604090205460ff161561099c5760405162461bcd60e51b8152602060048201526014602482015273417373657420616c72656164792065786973747360601b6044820152606401610283565b5f8361ffff161180156109b4575060648361ffff1611155b6109f55760405162461bcd60e51b81526020600482015260126024820152710436f7374206d75737420626520312d3130360741b6044820152606401610283565b83610a345760405162461bcd60e51b815260206004820152600f60248201526e125b9d985b1a590819995959081251608a1b6044820152606401610283565b60405180608001604052808581526020018461ffff16815260200160011515815260200183838080601f0160208091040260200160405190810160405280939291908181526020018383808284375f9201829052509390945250508781526001602081815260409283902085518155908501519181018054938601511515620100000262ffffff1990941661ffff9093169290921792909217905560608301519091506002820190610ae6908261115f565b50506002805460018181019092557f405787fa12a823e0f2b7631cc41b3ba8828b3321ca811111fa75cd3aa3bb5ace018790555f8781526003602052604090819020805460ff1916909217909155518691507fd2a0cc0c0474ed6c3349931dee3321400e8bb78763e064e0dc346c44824741d690610b6b90879087908790879061121f565b60405180910390a25050505050565b610b82610cfa565b5f8481526003602052604090205460ff16610baf5760405162461bcd60e51b815260040161028390611046565b5f8261ffff16118015610bc7575060648261ffff1611155b610c085760405162461bcd60e51b81526020600482015260126024820152710436f7374206d75737420626520312d3130360741b6044820152606401610283565b82610c475760405162461bcd60e51b815260206004820152600f60248201526e125b9d985b1a590819995959081251608a1b6044820152606401610283565b5f84815260016020818152604092839020868155918201805461ffff871662ffffff1990911681176201000087151590810291909117909255845188815292830152928101929092529085907f9afe5bac933bbcf43b02cd6ecffab466868ea75f91058b33e36cb1200a07515f90606001610b6b565b610cc5610cfa565b6001600160a01b038116610cee57604051631e4fbdf760e01b81525f6004820152602401610283565b610cf781610d26565b50565b5f546001600160a01b031633146107225760405163118cdaa760e01b8152336004820152602401610283565b5f80546001600160a01b038381166001600160a01b0319831681178455604051919092169283917f8be0079c531659141344cd1fd0a4f28419497f9722a3daafe3b4186f6b6457e09190a35050565b5f60208284031215610d85575f80fd5b5035919050565b80358015158114610d9b575f80fd5b919050565b5f8060408385031215610db1575f80fd5b82359150610dc160208401610d8c565b90509250929050565b602080825282518282018190525f9190848201906040850190845b81811015610e0157835183529284019291840191600101610de5565b50909695505050505050565b5f81518084525f5b81811015610e3157602081850181015186830182015201610e15565b505f602082860101526020601f19601f83011685010191505092915050565b602081528151602082015261ffff60208301511660408201526040820151151560608201525f6060830151608080840152610e8e60a0840182610e0d565b949350505050565b5f8060208385031215610ea7575f80fd5b823567ffffffffffffffff80821115610ebe575f80fd5b818501915085601f830112610ed1575f80fd5b813581811115610edf575f80fd5b8660208260051b8501011115610ef3575f80fd5b60209290920196919550909350505050565b84815261ffff841660208201528215156040820152608060608201525f610f2f6080830184610e0d565b9695505050505050565b803561ffff81168114610d9b575f80fd5b5f805f805f60808688031215610f5e575f80fd5b8535945060208601359350610f7560408701610f39565b9250606086013567ffffffffffffffff80821115610f91575f80fd5b818801915088601f830112610fa4575f80fd5b813581811115610fb2575f80fd5b896020828501011115610fc3575f80fd5b9699959850939650602001949392505050565b5f805f8060808587031215610fe9575f80fd5b843593506020850135925061100060408601610f39565b915061100e60608601610d8c565b905092959194509250565b5f60208284031215611029575f80fd5b81356001600160a01b038116811461103f575f80fd5b9392505050565b602080825260149082015273105cdcd95d08191bd95cc81b9bdd08195e1a5cdd60621b604082015260600190565b600181811c9082168061108857607f821691505b6020821081036110a657634e487b7160e01b5f52602260045260245ffd5b50919050565b634e487b7160e01b5f52603260045260245ffd5b634e487b7160e01b5f52601160045260245ffd5b5f600182016110e5576110e56110c0565b5060010190565b634e487b7160e01b5f52604160045260245ffd5b8082018082111561070b5761070b6110c0565b601f82111561115a57805f5260205f20601f840160051c810160208510156111385750805b601f840160051c820191505b81811015611157575f8155600101611144565b50505b505050565b815167ffffffffffffffff811115611179576111796110ec565b61118d816111878454611074565b84611113565b602080601f8311600181146111c0575f84156111a95750858301515b5f19600386901b1c1916600185901b178555611217565b5f85815260208120601f198616915b828110156111ee578886015182559484019460019091019084016111cf565b508582101561120b57878501515f19600388901b60f8161c191681555b505060018460011b0185555b505050505050565b84815261ffff8416602082015260606040820152816060820152818360808301375f818301608090810191909152601f909201601f19160101939250505056fea2646970667358221220be1107a05cf084c69ce83335864b1edfbecb98c0e707f5e51f849c90e1d80c6e64736f6c63430008180033","linkReferences":{}},"methodIdentifiers":{"addAsset(bytes32,bytes32,uint16,string)":"b6a0a1f3","assetSymbols(uint256)":"25c8a5ff","assets(bytes32)":"9fda5b66","getAllAssets()":"2acada4d","getAsset(bytes32)":"2cc3ce80","getEnabledAssets()":"3b127088","getPortfolioCost(bytes32[])":"69efa863","owner()":"8da5cb5b","renounceOwnership()":"715018a6","symbolExists(bytes32)":"02515835","toggleAsset(bytes32,bool)":"0838aebd","transferOwnership(address)":"f2fde38b","updateAsset(bytes32,bytes32,uint16,bool)":"d9b60e54","validatePortfolio(bytes32[])":"9f11194f"},"id":28}