{"abi":[{"type":"constructor","inputs":[{"name":"_assetRegistry","type":"address","internalType":"address"},{"name":"_nftVault","type":"address","internalType":"address"},{"name":"_pythOracle","type":"address","internalType":"address"}],"stateMutability":"nonpayable"},{"type":"function","name":"MATCH_DURATION","inputs":[],"outputs":[{"name":"","type":"uint256","internalType":"uint256"}],"stateMutability":"view"},{"type":"function","name":"MAX_PRICE_STALENESS","inputs":[],"outputs":[{"name":"","type":"uint256","internalType":"uint256"}],"stateMutability":"view"},{"type":"function","name":"assetRegistry","inputs":[],"outputs":[{"name":"","type":"address","internalType":"contract AssetRegistry"}],"stateMutability":"view"},{"type":"function","name":"cancelMatch","inputs":[{"name":"matchId","type":"uint256","internalType":"uint256"}],"outputs":[],"stateMutability":"nonpayable"},{"type":"function","name":"createMatch","inputs":[{"name":"nftContract","type":"address","internalType":"address"},{"name":"nftTokenId","type":"uint256","internalType":"uint256"},{"name":"commitHash","type":"bytes32","internalType":"bytes32"}],"outputs":[{"name":"matchId","type":"uint256","internalType":"uint256"}],"stateMutability":"nonpayable"},{"type":"function","name":"getMatch","inputs":[{"name":"matchId","type":"uint256","internalType":"uint256"}],"outputs":[{"name":"","type":"tuple","internalType":"struct Matchmaker.Match","components":[{"name":"matchId","type":"uint256","internalType":"uint256"},{"name":"state","type":"uint8","internalType":"enum Matchmaker.MatchState"},{"name":"player1","type":"tuple","internalType":"struct Matchmaker.PlayerCommit","components":[{"name":"player","type":"address","internalType":"address"},{"name":"nftContract","type":"address","internalType":"address"},{"name":"nftTokenId","type":"uint256","internalType":"uint256"},{"name":"commitHash","type":"bytes32","internalType":"bytes32"},{"name":"hasCommitted","type":"bool","internalType":"bool"},{"name":"hasRevealed","type":"bool","internalType":"bool"}]},{"name":"player2","type":"tuple","internalType":"struct Matchmaker.PlayerCommit","components":[{"name":"player","type":"address","internalType":"address"},{"name":"nftContract","type":"address","internalType":"address"},{"name":"nftTokenId","type":"uint256","internalType":"uint256"},{"name":"commitHash","type":"bytes32","internalType":"bytes32"},{"name":"hasCommitted","type":"bool","internalType":"bool"},{"name":"hasRevealed","type":"bool","internalType":"bool"}]},{"name":"player1Picks","type":"tuple","internalType":"struct Matchmaker.PlayerPicks","components":[{"name":"assets","type":"bytes32[]","internalType":"bytes32[]"},{"name":"roles","type":"uint8[]","internalType":"enum GameMath.Role[]"},{"name":"startPrices","type":"int64[]","internalType":"int64[]"},{"name":"endPrices","type":"int64[]","internalType":"int64[]"},{"name":"totalScore","type":"int256","internalType":"int256"}]},{"name":"player2Picks","type":"tuple","internalType":"struct Matchmaker.PlayerPicks","components":[{"name":"assets","type":"bytes32[]","internalType":"bytes32[]"},{"name":"roles","type":"uint8[]","internalType":"enum GameMath.Role[]"},{"name":"startPrices","type":"int64[]","internalType":"int64[]"},{"name":"endPrices","type":"int64[]","internalType":"int64[]"},{"name":"totalScore","type":"int256","internalType":"int256"}]},{"name":"startTime","type":"uint256","internalType":"uint256"},{"name":"endTime","type":"uint256","internalType":"uint256"},{"name":"winner","type":"address","internalType":"address"},{"name":"createdAt","type":"uint256","internalType":"uint256"}]}],"stateMutability":"view"},{"type":"function","name":"getPlayerActiveMatch","inputs":[{"name":"player","type":"address","internalType":"address"}],"outputs":[{"name":"","type":"uint256","internalType":"uint256"}],"stateMutability":"view"},{"type":"function","name":"joinMatch","inputs":[{"name":"matchId","type":"uint256","internalType":"uint256"},{"name":"nftContract","type":"address","internalType":"address"},{"name":"nftTokenId","type":"uint256","internalType":"uint256"},{"name":"commitHash","type":"bytes32","internalType":"bytes32"}],"outputs":[],"stateMutability":"nonpayable"},{"type":"function","name":"matchCounter","inputs":[],"outputs":[{"name":"","type":"uint256","internalType":"uint256"}],"stateMutability":"view"},{"type":"function","name":"matches","inputs":[{"name":"","type":"uint256","internalType":"uint256"}],"outputs":[{"name":"matchId","type":"uint256","internalType":"uint256"},{"name":"state","type":"uint8","internalType":"enum Matchmaker.MatchState"},{"name":"player1","type":"tuple","internalType":"struct Matchmaker.PlayerCommit","components":[{"name":"player","type":"address","internalType":"address"},{"name":"nftContract","type":"address","internalType":"address"},{"name":"nftTokenId","type":"uint256","internalType":"uint256"},{"name":"commitHash","type":"bytes32","internalType":"bytes32"},{"name":"hasCommitted","type":"bool","internalType":"bool"},{"name":"hasRevealed","type":"bool","internalType":"bool"}]},{"name":"player2","type":"tuple","internalType":"struct Matchmaker.PlayerCommit","components":[{"name":"player","type":"address","internalType":"address"},{"name":"nftContract","type":"address","internalType":"address"},{"name":"nftTokenId","type":"uint256","internalType":"uint256"},{"name":"commitHash","type":"bytes32","internalType":"bytes32"},{"name":"hasCommitted","type":"bool","internalType":"bool"},{"name":"hasRevealed","type":"bool","internalType":"bool"}]},{"name":"player1Picks","type":"tuple","internalType":"struct Matchmaker.PlayerPicks","components":[{"name":"assets","type":"bytes32[]","internalType":"bytes32[]"},{"name":"roles","type":"uint8[]","internalType":"enum GameMath.Role[]"},{"name":"startPrices","type":"int64[]","internalType":"int64[]"},{"name":"endPrices","type":"int64[]","internalType":"int64[]"},{"name":"totalScore","type":"int256","internalType":"int256"}]},{"name":"player2Picks","type":"tuple","internalType":"struct Matchmaker.PlayerPicks","components":[{"name":"assets","type":"bytes32[]","internalType":"bytes32[]"},{"name":"roles","type":"uint8[]","internalType":"enum GameMath.Role[]"},{"name":"startPrices","type":"int64[]","internalType":"int64[]"},{"name":"endPrices","type":"int64[]","internalType":"int64[]"},{"name":"totalScore","type":"int256","internalType":"int256"}]},{"name":"startTime","type":"uint256","internalType":"uint256"},{"name":"endTime","type":"uint256","internalType":"uint256"},{"name":"winner","type":"address","internalType":"address"},{"name":"createdAt","type":"uint256","internalType":"uint256"}],"stateMutability":"view"},{"type":"function","name":"nftVault","inputs":[],"outputs":[{"name":"","type":"address","internalType":"contract NFTVault"}],"stateMutability":"view"},{"type":"function","name":"playerActiveMatch","inputs":[{"name":"","type":"address","internalType":"address"}],"outputs":[{"name":"","type":"uint256","internalType":"uint256"}],"stateMutability":"view"},{"type":"function","name":"pythOracle","inputs":[],"outputs":[{"name":"","type":"address","internalType":"contract MockPyth"}],"stateMutability":"view"},{"type":"function","name":"revealAndSettle","inputs":[{"name":"matchId","type":"uint256","internalType":"uint256"},{"name":"assets","type":"bytes32[]","internalType":"bytes32[]"},{"name":"roles","type":"uint8[]","internalType":"enum GameMath.Role[]"},{"name":"salt","type":"bytes32","internalType":"bytes32"}],"outputs":[],"stateMutability":"nonpayable"},{"type":"function","name":"startMatch","inputs":[{"name":"matchId","type":"uint256","internalType":"uint256"}],"outputs":[],"stateMutability":"nonpayable"},{"type":"event","name":"MatchCancelled","inputs":[{"name":"matchId","type":"uint256","indexed":true,"internalType":"uint256"}],"anonymous":false},{"type":"event","name":"MatchCreated","inputs":[{"name":"matchId","type":"uint256","indexed":true,"internalType":"uint256"},{"name":"player1","type":"address","indexed":true,"internalType":"address"}],"anonymous":false},{"type":"event","name":"MatchJoined","inputs":[{"name":"matchId","type":"uint256","indexed":true,"internalType":"uint256"},{"name":"player2","type":"address","indexed":true,"internalType":"address"}],"anonymous":false},{"type":"event","name":"MatchSettled","inputs":[{"name":"matchId","type":"uint256","indexed":true,"internalType":"uint256"},{"name":"winner","type":"address","indexed":true,"internalType":"address"},{"name":"score1","type":"int256","indexed":false,"internalType":"int256"},{"name":"score2","type":"int256","indexed":false,"internalType":"int256"}],"anonymous":false},{"type":"event","name":"MatchStarted","inputs":[{"name":"matchId","type":"uint256","indexed":true,"internalType":"uint256"},{"name":"startTime","type":"uint256","indexed":false,"internalType":"uint256"}],"anonymous":false},{"type":"event","name":"PicksRevealed","inputs":[{"name":"matchId","type":"uint256","indexed":true,"internalType":"uint256"},{"name":"player","type":"address","indexed":true,"internalType":"address"}],"anonymous":false},{"type":"error","name":"ReentrancyGuardReentrantCall","inputs":[]}],"bytecode":{"object":"0x608060405234801562000010575f80fd5b506040516200310e3803806200310e833981016040819052620000339162000176565b60015f556001600160a01b038316620000865760405162461bcd60e51b815260206004820152601060248201526f496e76616c696420726567697374727960801b60448201526064015b60405180910390fd5b6001600160a01b038216620000ce5760405162461bcd60e51b815260206004820152600d60248201526c125b9d985b1a59081d985d5b1d609a1b60448201526064016200007d565b6001600160a01b038116620001175760405162461bcd60e51b815260206004820152600e60248201526d496e76616c6964206f7261636c6560901b60448201526064016200007d565b600180546001600160a01b039485166001600160a01b031991821617909155600280549385169382169390931790925560038054919093169116179055620001bd565b80516001600160a01b038116811462000171575f80fd5b919050565b5f805f6060848603121562000189575f80fd5b62000194846200015a565b9250620001a4602085016200015a565b9150620001b4604085016200015a565b90509250925092565b612f4380620001cb5f395ff3fe608060405234801561000f575f80fd5b50600436106100f0575f3560e01c8063a189660511610093578063d02c8cdf11610063578063d02c8cdf14610221578063d6913b3214610234578063dbfb7d811461023c578063f5d6ac901461024f575f80fd5b8063a1896605146101b4578063ab9bcfc0146101dc578063bf725a84146101fb578063cece3cd41461020e575f80fd5b80634768d4ef116100ce5780634768d4ef1461014357806360c8b6c01461016c5780638d3bf1b314610181578063979d7e8614610189575f80fd5b806301fd1951146100f45780633d092b3d146101105780633ed6110d14610130575b5f80fd5b6100fd60045481565b6040519081526020015b60405180910390f35b61012361011e3660046126ce565b610262565b604051610107919061287b565b6100fd61013e366004612959565b61077e565b6101566101513660046126ce565b610989565b6040516101079a99989796959493929190612989565b61017f61017a366004612a5f565b610e41565b005b6100fd607881565b60015461019c906001600160a01b031681565b6040516001600160a01b039091168152602001610107565b6100fd6101c2366004612adb565b6001600160a01b03165f9081526006602052604090205490565b6100fd6101ea366004612adb565b60066020525f908152604090205481565b61017f6102093660046126ce565b6117ea565b61017f61021c366004612af4565b611929565b61017f61022f3660046126ce565b611bc4565b6100fd600581565b60025461019c906001600160a01b031681565b60035461019c906001600160a01b031681565b61026a61240e565b5f8281526005602090815260409182902082516101408101909352805483526001810154909183019060ff1660048111156102a7576102a76126e5565b60048111156102b8576102b86126e5565b81526040805160c0808201835260028501546001600160a01b039081168352600386015481166020848101919091526004870154848601526005870154606080860191909152600688015460ff8082161515608080890191909152610100928390048216151560a0808a0191909152858b019890985288518088018a5260078c01548716815260088c01549096168686015260098b0154868a0152600a8b015486850152600b8b01548083161515918701919091529190910416151583860152858701929092528451600c8801805492830282018501909652938401818152919095019492939284928491908401828280156103d157602002820191905f5260205f20905b8154815260200190600101908083116103bd575b505050505081526020016001820180548060200260200160405190810160405280929190818152602001828054801561045657602002820191905f5260205f20905f905b82829054906101000a900460ff166002811115610434576104346126e5565b8152602060019283018181049485019490930390920291018084116104155790505b50505050508152602001600282018054806020026020016040519081016040528092919081815260200182805480156104ce57602002820191905f5260205f20905f905b825461010083900a900460070b81526020600f830181900493840193600103600890930192909202910180841161049a5790505b505050505081526020016003820180548060200260200160405190810160405280929190818152602001828054801561054657602002820191905f5260205f20905f905b825461010083900a900460070b81526020600f83018190049384019360010360089093019290920291018084116105125790505b505050505081526020016004820154815250508152602001601182016040518060a00160405290815f82018054806020026020016040519081016040528092919081815260200182805480156105b957602002820191905f5260205f20905b8154815260200190600101908083116105a5575b505050505081526020016001820180548060200260200160405190810160405280929190818152602001828054801561063e57602002820191905f5260205f20905f905b82829054906101000a900460ff16600281111561061c5761061c6126e5565b8152602060019283018181049485019490930390920291018084116105fd5790505b50505050508152602001600282018054806020026020016040519081016040528092919081815260200182805480156106b657602002820191905f5260205f20905f905b825461010083900a900460070b81526020600f83018190049384019360010360089093019290920291018084116106825790505b505050505081526020016003820180548060200260200160405190810160405280929190818152602001828054801561072e57602002820191905f5260205f20905f905b825461010083900a900460070b81526020600f83018190049384019360010360089093019290920291018084116106fa5790505b5050509183525050600491909101546020918201529082526016830154908201526017820154604082015260188201546001600160a01b0316606082015260199091015460809091015292915050565b5f610787611d63565b335f90815260066020526040902054156107dd5760405162461bcd60e51b8152602060048201526012602482015271082d8e4cac2c8f240d2dc40c240dac2e8c6d60731b60448201526064015b60405180910390fd5b8161081b5760405162461bcd60e51b815260206004820152600e60248201526d125b9d985b1a590818dbdb5b5a5d60921b60448201526064016107d4565b60045f815461082990612b40565b9182905550600254604051634c294d4960e01b81526001600160a01b0387811660048301526024820187905233604483015260648201849052929350911690634c294d49906084015f604051808303815f87803b158015610888575f80fd5b505af115801561089a573d5f803e3d5ffd5b5050505f8281526005602081815260408084208681556001808201805460ff19169055825160c081018452338082526001600160a01b038d168287018190528286018d9052606083018c90526080830184905260a09092018890526002840180546001600160a01b03199081168317909155600385018054909116909217909155600483018b90559482018990556006808301805461ffff191690921790915542601983015584865290925280842086905551909350909184917f18a47d8df22f178f89e665cc0fccf4ee175e91434c7b749c4a7607ffa4d33a679190a35061098260015f55565b9392505050565b600560208181525f92835260409283902080546001820154855160c0808201885260028501546001600160a01b03908116835260038601548116838801526004860154838a015296850154606080840191909152600686015460ff8181161515608080870191909152610100928390048216151560a0808801919091528c518087018e5260078b01548d16815260088b0154909c168c8c015260098a01548c8e0152600a8a0154948c0194909452600b8901548083161515918c01919091529190910481161515898301528951600c88018054998a0282018501909b52918201888152959994169792969295949093928492849190840182828015610aab57602002820191905f5260205f20905b815481526020019060010190808311610a97575b5050505050815260200160018201805480602002602001604051908101604052809291908181526020018280548015610b3057602002820191905f5260205f20905f905b82829054906101000a900460ff166002811115610b0e57610b0e6126e5565b815260206001928301818104948501949093039092029101808411610aef5790505b5050505050815260200160028201805480602002602001604051908101604052809291908181526020018280548015610ba857602002820191905f5260205f20905f905b825461010083900a900460070b81526020600f8301819004938401936001036008909301929092029101808411610b745790505b5050505050815260200160038201805480602002602001604051908101604052809291908181526020018280548015610c2057602002820191905f5260205f20905f905b825461010083900a900460070b81526020600f8301819004938401936001036008909301929092029101808411610bec5790505b5050505050815260200160048201548152505090806011016040518060a00160405290815f8201805480602002602001604051908101604052809291908181526020018280548015610c8f57602002820191905f5260205f20905b815481526020019060010190808311610c7b575b5050505050815260200160018201805480602002602001604051908101604052809291908181526020018280548015610d1457602002820191905f5260205f20905f905b82829054906101000a900460ff166002811115610cf257610cf26126e5565b815260206001928301818104948501949093039092029101808411610cd35790505b5050505050815260200160028201805480602002602001604051908101604052809291908181526020018280548015610d8c57602002820191905f5260205f20905f905b825461010083900a900460070b81526020600f8301819004938401936001036008909301929092029101808411610d585790505b5050505050815260200160038201805480602002602001604051908101604052809291908181526020018280548015610e0457602002820191905f5260205f20905f905b825461010083900a900460070b81526020600f8301819004938401936001036008909301929092029101808411610dd05790505b5050509183525050600491909101546020909101526016820154601783015460188401546019909401549293919290916001600160a01b0316908a565b610e49611d63565b5f8681526005602052604090206002600182015460ff166004811115610e7157610e716126e5565b14610eb25760405162461bcd60e51b815260206004820152601160248201527013585d18da081b9bdd081cdd185c9d1959607a1b60448201526064016107d4565b8060170154421015610ef85760405162461bcd60e51b815260206004820152600f60248201526e13585d18da081b9bdd08195b991959608a1b60448201526064016107d4565b60028101546001600160a01b0316331480610f1f575060078101546001600160a01b031633145b610f5a5760405162461bcd60e51b815260206004820152600c60248201526b2737ba103090383630bcb2b960a11b60448201526064016107d4565b5f8686868686604051602001610f74959493929190612b58565b60408051808303601f19018152919052805160209091012060028301549091506001600160a01b03163314801561103b5760058301548214610fe95760405162461bcd60e51b815260206004820152600e60248201526d125b9d985b1a59081c995d99585b60921b60448201526064016107d4565b6006830154610100900460ff16156110365760405162461bcd60e51b815260206004820152601060248201526f105b1c9958591e481c995d99585b195960821b60448201526064016107d4565b6110cc565b600a830154821461107f5760405162461bcd60e51b815260206004820152600e60248201526d125b9d985b1a59081c995d99585b60921b60448201526064016107d4565b600b830154610100900460ff16156110cc5760405162461bcd60e51b815260206004820152601060248201526f105b1c9958591e481c995d99585b195960821b60448201526064016107d4565b600154604051639f11194f60e01b81525f9182916001600160a01b0390911690639f11194f90611102908d908d90600401612bbf565b6040805180830381865afa15801561111c573d5f803e3d5ffd5b505050506040513d601f19601f820116820180604052508101906111409190612c05565b91509150816111855760405162461bcd60e51b8152602060048201526011602482015270496e76616c696420706f7274666f6c696f60781b60448201526064016107d4565b6111c08888808060200260200160405190810160405280939291908181526020018383602002808284375f92019190915250611d8b92505050565b6111fc5760405162461bcd60e51b815260206004820152600d60248201526c496e76616c696420726f6c657360981b60448201526064016107d4565b60408051600780825261010082019092525f916020820160e080368337505060408051600780825261010082019092529293505f9291506020820160e0803683370190505090505f5b6007811015611445576001545f906001600160a01b0316632cc3ce808f8f8581811061127357611273612c43565b905060200201356040518263ffffffff1660e01b815260040161129891815260200190565b5f60405180830381865afa1580156112b2573d5f803e3d5ffd5b505050506040513d5f823e601f3d908101601f191682016040526112d99190810190612cb1565b60035481519192505f916001600160a01b039091169063a4ae35e09061130160786005612db4565b61130c90603c612db4565b6040516001600160e01b031960e085901b16815260048101929092526024820152604401608060405180830381865afa15801561134b573d5f803e3d5ffd5b505050506040513d601f19601f8201168201806040525081019061136f9190612dc7565b9050805f015185848151811061138757611387612c43565b60079290920b60209283029190910190910152600354825160405163052571af60e51b81526004810191909152600560248201525f916001600160a01b03169063a4ae35e090604401608060405180830381865afa1580156113eb573d5f803e3d5ffd5b505050506040513d601f19601f8201168201806040525081019061140f9190612dc7565b9050805f015185858151811061142757611427612c43565b60079290920b60209283029190910190910152505050600101611245565b5060408051600780825261010082019092525f916020820160e0803683370190505090505f5b60078110156114d5576114b084828151811061148957611489612c43565b60200260200101518483815181106114a3576114a3612c43565b6020026020010151611e4e565b8282815181106114c2576114c2612c43565b602090810291909101015260010161146b565b505f611513828d8d808060200260200160405190810160405280939291908181526020018383602002808284375f92019190915250611ed192505050565b90508615611644576040518060a001604052808f8f808060200260200160405190810160405280939291908181526020018383602002808284375f81840152601f19601f8201169050808301925050505050505081526020018d8d808060200260200160405190810160405280939291908181526020018383602002808284375f92019190915250505090825250602080820187905260408201869052606090910183905281518051600c8d01926115cf92849291019061251e565b5060208281015180516115e89260018501920190612567565b5060408201518051611604916002840191602090910190612611565b5060608201518051611620916003840191602090910190612611565b506080919091015160049091015560068901805461ff001916610100179055611769565b6040518060a001604052808f8f808060200260200160405190810160405280939291908181526020018383602002808284375f81840152601f19601f8201169050808301925050505050505081526020018d8d808060200260200160405190810160405280939291908181526020018383602002808284375f9201919091525050509082525060208082018790526040820186905260609091018390528151805160118d01926116f892849291019061251e565b5060208281015180516117119260018501920190612567565b506040820151805161172d916002840191602090910190612611565b5060608201518051611749916003840191602090910190612611565b5060809190910151600490910155600b8901805461ff0019166101001790555b336001600160a01b03168f7f672e5933f8d781e4eb1872b8bd9f8587e3bea4755364cee5ea569ea2dee5787660405160405180910390a36006890154610100900460ff1680156117c25750600b890154610100900460ff165b156117d0576117d08f611fbf565b5050505050505050506117e260015f55565b505050505050565b6117f2611d63565b5f81815260056020526040902060018082015460ff166004811115611819576118196126e5565b146118585760405162461bcd60e51b815260206004820152600f60248201526e4d61746368206e6f7420726561647960881b60448201526064016107d4565b60028101546001600160a01b031633148061187f575060078101546001600160a01b031633145b6118ba5760405162461bcd60e51b815260206004820152600c60248201526b2737ba103090383630bcb2b960a11b60448201526064016107d4565b60018101805460ff1916600217905542601682018190556118dd90607890612db4565b6017820155601681015460405190815282907fc21a199ff4f6a91b067a8a76292ba2e24c5202ddfbc8f5f5a68823666a51e6e99060200160405180910390a25061192660015f55565b50565b611931611d63565b335f90815260066020526040902054156119825760405162461bcd60e51b8152602060048201526012602482015271082d8e4cac2c8f240d2dc40c240dac2e8c6d60731b60448201526064016107d4565b806119c05760405162461bcd60e51b815260206004820152600e60248201526d125b9d985b1a590818dbdb5b5a5d60921b60448201526064016107d4565b5f84815260056020526040812090600182015460ff1660048111156119e7576119e76126e5565b14611a2a5760405162461bcd60e51b81526020600482015260136024820152724d61746368206e6f7420617661696c61626c6560681b60448201526064016107d4565b6002810154336001600160a01b0390911603611a7f5760405162461bcd60e51b815260206004820152601460248201527321b0b73737ba10383630bc903cb7bab939b2b63360611b60448201526064016107d4565b600254604051634c294d4960e01b81526001600160a01b038681166004830152602482018690523360448301526064820188905290911690634c294d49906084015f604051808303815f87803b158015611ad7575f80fd5b505af1158015611ae9573d5f803e3d5ffd5b50506040805160c081018252338082526001600160a01b03891660208084018290528385018a9052606084018990526001608085018190525f60a09095018590526007890180546001600160a01b0319908116861790915560088a018054909116909317909255600988018a9055600a8801899055600b8801805461ffff191683179055878201805460ff1916909217909155818352600690528282208a905591519193508892507f50d6e5d288766a7340b6110b6738cac822c48c128a47399df2fad303041f8d5091a350611bbe60015f55565b50505050565b611bcc611d63565b5f81815260056020526040902060028101546001600160a01b03163314611c355760405162461bcd60e51b815260206004820152601760248201527f4f6e6c792063726561746f722063616e2063616e63656c00000000000000000060448201526064016107d4565b5f600182015460ff166004811115611c4f57611c4f6126e5565b14611c945760405162461bcd60e51b815260206004820152601560248201527413585d18da08185b1c9958591e481cdd185c9d1959605a1b60448201526064016107d4565b60028054908201546003830154600480850154604051632b4380c560e01b81526001600160a01b0395861695632b4380c595611cd895908216949116929101612e3c565b5f604051808303815f87803b158015611cef575f80fd5b505af1158015611d01573d5f803e3d5ffd5b5050505060018101805460ff1916600417905560028101546001600160a01b03165f908152600660205260408082208290555183917f700135b4fe8746e2d2c85a9baa43c62887740aebfeb3a439f71a083fe5d5675991a25061192660015f55565b60025f5403611d8557604051633ee5aeb560e01b815260040160405180910390fd5b60025f55565b5f8151600714611d9c57505f919050565b5f805f5b8451811015611e35576002858281518110611dbd57611dbd612c43565b60200260200101516002811115611dd657611dd66126e5565b03611ded5782611de581612b40565b935050611e2d565b6001858281518110611e0157611e01612c43565b60200260200101516002811115611e1a57611e1a6126e5565b03611e2d5781611e2981612b40565b9250505b600101611da0565b50816001148015611e465750806001145b949350505050565b5f808360070b13611ea15760405162461bcd60e51b815260206004820152601c60248201527f5374617274207072696365206d75737420626520706f7369746976650000000060448201526064016107d4565b5f8360070b8360070b611eb49190612e60565b9050600784900b611ec761271083612e7f565b611e469190612eae565b5f8151835114611f155760405162461bcd60e51b815260206004820152600f60248201526e098cadccee8d040dad2e6dac2e8c6d608b1b60448201526064016107d4565b8251600714611f5b5760405162461bcd60e51b81526020600482015260126024820152714d757374206861766520372061737365747360701b60448201526064016107d4565b505f805b8351811015611fb857611fa4848281518110611f7d57611f7d612c43565b6020026020010151848381518110611f9757611f97612c43565b602002602001015161237b565b611fae9083612ee6565b9150600101611f5f565b5092915050565b5f81815260056020526040812060108101546015820154919291611fe39190612394565b6001838101805460ff1916600417905590915060ff8216900361210e576002808301546018840180546001600160a01b0319166001600160a01b0392831690811790915591546003850154600480870154604051632b4380c560e01b815293851695632b4380c595612059959194169201612e3c565b5f604051808303815f87803b158015612070575f80fd5b505af1158015612082573d5f803e3d5ffd5b5050600280546007860154918601546008870154600988015460405163230dc78760e21b81526001600160a01b03958616600482015292851660248401529084166044830152606482015291169250638c371e1c91506084015b5f604051808303815f87803b1580156120f3575f80fd5b505af1158015612105573d5f803e3d5ffd5b505050506122f9565b8060ff166002036122035760078201546018830180546001600160a01b0319166001600160a01b0392831690811790915560025460088501546009860154604051632b4380c560e01b815292851694632b4380c5946121769490939091169190600401612e3c565b5f604051808303815f87803b15801561218d575f80fd5b505af115801561219f573d5f803e3d5ffd5b505060028054908501546007860154600387015460048089015460405163230dc78760e21b81526001600160a01b039586169281019290925292841660248201529083166044820152606481019190915291169250638c371e1c91506084016120dc565b6018820180546001600160a01b031916905560028054908301546003840154600480860154604051632b4380c560e01b81526001600160a01b0395861695632b4380c59561225995908216949116929101612e3c565b5f604051808303815f87803b158015612270575f80fd5b505af1158015612282573d5f803e3d5ffd5b5050600254600785015460088601546009870154604051632b4380c560e01b81526001600160a01b039485169650632b4380c595506122cb949384169390921691600401612e3c565b5f604051808303815f87803b1580156122e2575f80fd5b505af11580156122f4573d5f803e3d5ffd5b505050505b60028201546001600160a01b039081165f90815260066020908152604080832083905560078601548416835280832092909255601885015460108601546015870154845191825292810192909252825193169286927f1fc410bdd49f77d51c03f857ea2d53d582a0e2b9a693caa99798dc76172bdf65928290030190a3505050565b5f80612386836123be565b90506064611ec78286612e7f565b5f818313156123a5575060016123b8565b828213156123b5575060026123b8565b505f5b92915050565b5f60028260028111156123d3576123d36126e5565b036123e0575060c8919050565b60018260028111156123f4576123f46126e5565b0361240157506096919050565b506064919050565b919050565b6040805161014081019091525f808252602082019081526040805160c0810182525f8082526020828101829052928201819052606082018190526080820181905260a082015291019081526040805160c0810182525f8082526020828101829052928201819052606082018190526080820181905260a082015291019081526020016124c16040518060a00160405280606081526020016060815260200160608152602001606081526020015f81525090565b81526020016124f76040518060a00160405280606081526020016060815260200160608152602001606081526020015f81525090565b81526020015f81526020015f81526020015f6001600160a01b031681526020015f81525090565b828054828255905f5260205f20908101928215612557579160200282015b8281111561255757825182559160200191906001019061253c565b506125639291506126ba565b5090565b828054828255905f5260205f2090601f01602090048101928215612557579160200282015f5b838211156125d857835183826101000a81548160ff021916908360028111156125b8576125b86126e5565b021790555092602001926001016020815f0104928301926001030261258d565b80156126045782816101000a81549060ff02191690556001016020815f010492830192600103026125d8565b50506125639291506126ba565b828054828255905f5260205f2090600301600490048101928215612557579160200282015f5b8382111561268657835183826101000a81548167ffffffffffffffff021916908360070b67ffffffffffffffff1602179055509260200192600801602081600701049283019260010302612637565b80156126045782816101000a81549067ffffffffffffffff0219169055600801602081600701049283019260010302612686565b5b80821115612563575f81556001016126bb565b5f602082840312156126de575f80fd5b5035919050565b634e487b7160e01b5f52602160045260245ffd5b60058110612709576127096126e5565b9052565b80516001600160a01b03908116835260208083015190911690830152604080820151908301526060808201519083015260808082015115159083015260a0908101511515910152565b60038110612709576127096126e5565b5f815180845260208085019450602084015f5b8381101561279c5761278c878351612756565b9582019590820190600101612779565b509495945050505050565b5f815180845260208085019450602084015f5b8381101561279c57815160070b875295820195908201906001016127ba565b805160a080845281519084018190525f916020919082019060c0860190845b81811015612814578351835292840192918401916001016127f8565b505060208501519250858103602087015261282f8184612766565b925050506040830151848203604086015261284a82826127a7565b9150506060830151848203606086015261286482826127a7565b915050608083015160808501528091505092915050565b60208152815160208201525f602083015161289960408401826126f9565b5060408301516128ac606084018261270d565b5060608301516101206128c18185018361270d565b60808501519150610280806101e08601526128e06102a08601846127d9565b925060a0860151601f19868503016102008701526128fe84826127d9565b93505060c086015161022086015260e08601516102408601526101008601516129336102608701826001600160a01b03169052565b5094015192909301919091525090565b80356001600160a01b0381168114612409575f80fd5b5f805f6060848603121561296b575f80fd5b61297484612943565b95602085013595506040909401359392505050565b5f6102808c835261299d602084018d6126f9565b6129aa604084018c61270d565b6129b861010084018b61270d565b806101c08401526129cb8184018a6127d9565b90508281036101e08401526129e081896127d9565b61020084019790975250506102208101939093526001600160a01b0391909116610240830152610260909101529695505050505050565b5f8083601f840112612a27575f80fd5b50813567ffffffffffffffff811115612a3e575f80fd5b6020830191508360208260051b8501011115612a58575f80fd5b9250929050565b5f805f805f8060808789031215612a74575f80fd5b86359550602087013567ffffffffffffffff80821115612a92575f80fd5b612a9e8a838b01612a17565b90975095506040890135915080821115612ab6575f80fd5b50612ac389828a01612a17565b979a9699509497949695606090950135949350505050565b5f60208284031215612aeb575f80fd5b61098282612943565b5f805f8060808587031215612b07575f80fd5b84359350612b1760208601612943565b93969395505050506040820135916060013590565b634e487b7160e01b5f52601160045260245ffd5b5f60018201612b5157612b51612b2c565b5060010190565b5f6001600160fb1b03861115612b6c575f80fd5b8560051b808884378201855f5b86811015612bad57813560038110612b8f575f80fd5b612b998482612756565b506020928301929190910190600101612b79565b50509283525050602001949350505050565b602080825281018290525f6001600160fb1b03831115612bdd575f80fd5b8260051b80856040850137919091016040019392505050565b80518015158114612409575f80fd5b5f8060408385031215612c16575f80fd5b612c1f83612bf6565b9150602083015190509250929050565b634e487b7160e01b5f52604160045260245ffd5b634e487b7160e01b5f52603260045260245ffd5b6040516080810167ffffffffffffffff81118282101715612c7a57612c7a612c2f565b60405290565b604051601f8201601f1916810167ffffffffffffffff81118282101715612ca957612ca9612c2f565b604052919050565b5f6020808385031215612cc2575f80fd5b825167ffffffffffffffff80821115612cd9575f80fd5b9084019060808287031215612cec575f80fd5b612cf4612c57565b825181528383015161ffff81168114612d0b575f80fd5b81850152612d1b60408401612bf6565b6040820152606083015182811115612d31575f80fd5b80840193505086601f840112612d45575f80fd5b825182811115612d5757612d57612c2f565b612d69601f8201601f19168601612c80565b92508083528785828601011115612d7e575f80fd5b5f5b81811015612d9b578481018601518482018701528501612d80565b505f908301909401939093526060830152509392505050565b808201808211156123b8576123b8612b2c565b5f60808284031215612dd7575f80fd5b612ddf612c57565b82518060070b8114612def575f80fd5b8152602083015167ffffffffffffffff81168114612e0b575f80fd5b60208201526040830151600381900b8114612e24575f80fd5b60408201526060928301519281019290925250919050565b6001600160a01b039384168152919092166020820152604081019190915260600190565b8181035f831280158383131683831282161715611fb857611fb8612b2c565b8082025f8212600160ff1b84141615612e9a57612e9a612b2c565b81810583148215176123b8576123b8612b2c565b5f82612ec857634e487b7160e01b5f52601260045260245ffd5b600160ff1b82145f1984141615612ee157612ee1612b2c565b500590565b8082018281125f831280158216821582161715612f0557612f05612b2c565b50509291505056fea26469706673582212209e56cf45d8887c3f3e6385cb2309ebdb1cf23b640a22f68f7db196fcdad2afd664736f6c63430008180033","linkReferences":{}},"methodIdentifiers":{"MATCH_DURATION()":"8d3bf1b3","MAX_PRICE_STALENESS()":"d6913b32","assetRegistry()":"979d7e86","cancelMatch(uint256)":"d02c8cdf","createMatch(address,uint256,bytes32)":"3ed6110d","getMatch(uint256)":"3d092b3d","getPlayerActiveMatch(address)":"a1896605","joinMatch(uint256,address,uint256,bytes32)":"cece3cd4","matchCounter()":"01fd1951","matches(uint256)":"4768d4ef","nftVault()":"dbfb7d81","playerActiveMatch(address)":"ab9bcfc0","pythOracle()":"f5d6ac90","revealAndSettle(uint256,bytes32[],uint8[],bytes32)":"60c8b6c0","startMatch(uint256)":"bf725a84"},"id":39}