{"abi":[{"type":"constructor","inputs":[{"name":"_assetRegistry","type":"address","internalType":"address"},{"name":"_nftVault","type":"address","internalType":"address"},{"name":"_pythOracle","type":"address","internalType":"address"}],"stateMutability":"nonpayable"},{"type":"function","name":"MATCH_DURATION","inputs":[],"outputs":[{"name":"","type":"uint256","internalType":"uint256"}],"stateMutability":"view"},{"type":"function","name":"MAX_PRICE_STALENESS","inputs":[],"outputs":[{"name":"","type":"uint256","internalType":"uint256"}],"stateMutability":"view"},{"type":"function","name":"assetRegistry","inputs":[],"outputs":[{"name":"","type":"address","internalType":"contract AssetRegistry"}],"stateMutability":"view"},{"type":"function","name":"cancelMatch","inputs":[{"name":"matchId","type":"uint256","internalType":"uint256"}],"outputs":[],"stateMutability":"nonpayable"},{"type":"function","name":"clearStuckMatch","inputs":[],"outputs":[],"stateMutability":"nonpayable"},{"type":"function","name":"createMatch","inputs":[{"name":"nftContract","type":"address","internalType":"address"},{"name":"nftTokenId","type":"uint256","internalType":"uint256"},{"name":"commitHash","type":"bytes32","internalType":"bytes32"}],"outputs":[{"name":"matchId","type":"uint256","internalType":"uint256"}],"stateMutability":"nonpayable"},{"type":"function","name":"forceExpireMatch","inputs":[{"name":"matchId","type":"uint256","internalType":"uint256"}],"outputs":[],"stateMutability":"nonpayable"},{"type":"function","name":"getMatch","inputs":[{"name":"matchId","type":"uint256","internalType":"uint256"}],"outputs":[{"name":"","type":"tuple","internalType":"struct Matchmaker.Match","components":[{"name":"matchId","type":"uint256","internalType":"uint256"},{"name":"state","type":"uint8","internalType":"enum Matchmaker.MatchState"},{"name":"player1","type":"tuple","internalType":"struct Matchmaker.PlayerCommit","components":[{"name":"player","type":"address","internalType":"address"},{"name":"nftContract","type":"address","internalType":"address"},{"name":"nftTokenId","type":"uint256","internalType":"uint256"},{"name":"commitHash","type":"bytes32","internalType":"bytes32"},{"name":"hasCommitted","type":"bool","internalType":"bool"},{"name":"hasRevealed","type":"bool","internalType":"bool"}]},{"name":"player2","type":"tuple","internalType":"struct Matchmaker.PlayerCommit","components":[{"name":"player","type":"address","internalType":"address"},{"name":"nftContract","type":"address","internalType":"address"},{"name":"nftTokenId","type":"uint256","internalType":"uint256"},{"name":"commitHash","type":"bytes32","internalType":"bytes32"},{"name":"hasCommitted","type":"bool","internalType":"bool"},{"name":"hasRevealed","type":"bool","internalType":"bool"}]},{"name":"player1Picks","type":"tuple","internalType":"struct Matchmaker.PlayerPicks","components":[{"name":"assets","type":"bytes32[]","internalType":"bytes32[]"},{"name":"roles","type":"uint8[]","internalType":"enum GameMath.Role[]"},{"name":"startPrices","type":"int64[]","internalType":"int64[]"},{"name":"endPrices","type":"int64[]","internalType":"int64[]"},{"name":"totalScore","type":"int256","internalType":"int256"}]},{"name":"player2Picks","type":"tuple","internalType":"struct Matchmaker.PlayerPicks","components":[{"name":"assets","type":"bytes32[]","internalType":"bytes32[]"},{"name":"roles","type":"uint8[]","internalType":"enum GameMath.Role[]"},{"name":"startPrices","type":"int64[]","internalType":"int64[]"},{"name":"endPrices","type":"int64[]","internalType":"int64[]"},{"name":"totalScore","type":"int256","internalType":"int256"}]},{"name":"startTime","type":"uint256","internalType":"uint256"},{"name":"endTime","type":"uint256","internalType":"uint256"},{"name":"winner","type":"address","internalType":"address"},{"name":"createdAt","type":"uint256","internalType":"uint256"}]}],"stateMutability":"view"},{"type":"function","name":"getPlayerActiveMatch","inputs":[{"name":"player","type":"address","internalType":"address"}],"outputs":[{"name":"","type":"uint256","internalType":"uint256"}],"stateMutability":"view"},{"type":"function","name":"joinMatch","inputs":[{"name":"matchId","type":"uint256","internalType":"uint256"},{"name":"nftContract","type":"address","internalType":"address"},{"name":"nftTokenId","type":"uint256","internalType":"uint256"},{"name":"commitHash","type":"bytes32","internalType":"bytes32"}],"outputs":[],"stateMutability":"nonpayable"},{"type":"function","name":"matchCounter","inputs":[],"outputs":[{"name":"","type":"uint256","internalType":"uint256"}],"stateMutability":"view"},{"type":"function","name":"matches","inputs":[{"name":"","type":"uint256","internalType":"uint256"}],"outputs":[{"name":"matchId","type":"uint256","internalType":"uint256"},{"name":"state","type":"uint8","internalType":"enum Matchmaker.MatchState"},{"name":"player1","type":"tuple","internalType":"struct Matchmaker.PlayerCommit","components":[{"name":"player","type":"address","internalType":"address"},{"name":"nftContract","type":"address","internalType":"address"},{"name":"nftTokenId","type":"uint256","internalType":"uint256"},{"name":"commitHash","type":"bytes32","internalType":"bytes32"},{"name":"hasCommitted","type":"bool","internalType":"bool"},{"name":"hasRevealed","type":"bool","internalType":"bool"}]},{"name":"player2","type":"tuple","internalType":"struct Matchmaker.PlayerCommit","components":[{"name":"player","type":"address","internalType":"address"},{"name":"nftContract","type":"address","internalType":"address"},{"name":"nftTokenId","type":"uint256","internalType":"uint256"},{"name":"commitHash","type":"bytes32","internalType":"bytes32"},{"name":"hasCommitted","type":"bool","internalType":"bool"},{"name":"hasRevealed","type":"bool","internalType":"bool"}]},{"name":"player1Picks","type":"tuple","internalType":"struct Matchmaker.PlayerPicks","components":[{"name":"assets","type":"bytes32[]","internalType":"bytes32[]"},{"name":"roles","type":"uint8[]","internalType":"enum GameMath.Role[]"},{"name":"startPrices","type":"int64[]","internalType":"int64[]"},{"name":"endPrices","type":"int64[]","internalType":"int64[]"},{"name":"totalScore","type":"int256","internalType":"int256"}]},{"name":"player2Picks","type":"tuple","internalType":"struct Matchmaker.PlayerPicks","components":[{"name":"assets","type":"bytes32[]","internalType":"bytes32[]"},{"name":"roles","type":"uint8[]","internalType":"enum GameMath.Role[]"},{"name":"startPrices","type":"int64[]","internalType":"int64[]"},{"name":"endPrices","type":"int64[]","internalType":"int64[]"},{"name":"totalScore","type":"int256","internalType":"int256"}]},{"name":"startTime","type":"uint256","internalType":"uint256"},{"name":"endTime","type":"uint256","internalType":"uint256"},{"name":"winner","type":"address","internalType":"address"},{"name":"createdAt","type":"uint256","internalType":"uint256"}],"stateMutability":"view"},{"type":"function","name":"nftVault","inputs":[],"outputs":[{"name":"","type":"address","internalType":"contract NFTVault"}],"stateMutability":"view"},{"type":"function","name":"playerActiveMatch","inputs":[{"name":"","type":"address","internalType":"address"}],"outputs":[{"name":"","type":"uint256","internalType":"uint256"}],"stateMutability":"view"},{"type":"function","name":"pythOracle","inputs":[],"outputs":[{"name":"","type":"address","internalType":"contract IPythOracle"}],"stateMutability":"view"},{"type":"function","name":"revealAndSettle","inputs":[{"name":"matchId","type":"uint256","internalType":"uint256"},{"name":"assets","type":"bytes32[]","internalType":"bytes32[]"},{"name":"roles","type":"uint8[]","internalType":"enum GameMath.Role[]"},{"name":"salt","type":"bytes32","internalType":"bytes32"}],"outputs":[],"stateMutability":"nonpayable"},{"type":"function","name":"startMatch","inputs":[{"name":"matchId","type":"uint256","internalType":"uint256"}],"outputs":[],"stateMutability":"nonpayable"},{"type":"event","name":"MatchCancelled","inputs":[{"name":"matchId","type":"uint256","indexed":true,"internalType":"uint256"}],"anonymous":false},{"type":"event","name":"MatchCreated","inputs":[{"name":"matchId","type":"uint256","indexed":true,"internalType":"uint256"},{"name":"player1","type":"address","indexed":true,"internalType":"address"}],"anonymous":false},{"type":"event","name":"MatchJoined","inputs":[{"name":"matchId","type":"uint256","indexed":true,"internalType":"uint256"},{"name":"player2","type":"address","indexed":true,"internalType":"address"}],"anonymous":false},{"type":"event","name":"MatchSettled","inputs":[{"name":"matchId","type":"uint256","indexed":true,"internalType":"uint256"},{"name":"winner","type":"address","indexed":true,"internalType":"address"},{"name":"score1","type":"int256","indexed":false,"internalType":"int256"},{"name":"score2","type":"int256","indexed":false,"internalType":"int256"}],"anonymous":false},{"type":"event","name":"MatchStarted","inputs":[{"name":"matchId","type":"uint256","indexed":true,"internalType":"uint256"},{"name":"startTime","type":"uint256","indexed":false,"internalType":"uint256"}],"anonymous":false},{"type":"event","name":"PicksRevealed","inputs":[{"name":"matchId","type":"uint256","indexed":true,"internalType":"uint256"},{"name":"player","type":"address","indexed":true,"internalType":"address"}],"anonymous":false},{"type":"error","name":"ReentrancyGuardReentrantCall","inputs":[]}],"bytecode":{"object":"0x608060405234801562000010575f80fd5b506040516200367138038062003671833981016040819052620000339162000176565b60015f556001600160a01b038316620000865760405162461bcd60e51b815260206004820152601060248201526f496e76616c696420726567697374727960801b60448201526064015b60405180910390fd5b6001600160a01b038216620000ce5760405162461bcd60e51b815260206004820152600d60248201526c125b9d985b1a59081d985d5b1d609a1b60448201526064016200007d565b6001600160a01b038116620001175760405162461bcd60e51b815260206004820152600e60248201526d496e76616c6964206f7261636c6560901b60448201526064016200007d565b600180546001600160a01b039485166001600160a01b031991821617909155600280549385169382169390931790925560038054919093169116179055620001bd565b80516001600160a01b038116811462000171575f80fd5b919050565b5f805f6060848603121562000189575f80fd5b62000194846200015a565b9250620001a4602085016200015a565b9150620001b4604085016200015a565b90509250925092565b6134a680620001cb5f395ff3fe608060405234801561000f575f80fd5b5060043610610106575f3560e01c8063a18966051161009e578063cece3cd41161006e578063cece3cd41461023f578063d02c8cdf14610252578063d6913b3214610265578063dbfb7d811461026d578063f5d6ac9014610280575f80fd5b8063a1896605146101dd578063ab9bcfc014610205578063b8c06d0414610224578063bf725a841461022c575f80fd5b80634768d4ef116100d95780634768d4ef1461016e57806360c8b6c0146101975780638d3bf1b3146101aa578063979d7e86146101b2575f80fd5b806301fd19511461010a57806310a95ae3146101265780633d092b3d1461013b5780633ed6110d1461015b575b5f80fd5b61011360045481565b6040519081526020015b60405180910390f35b610139610134366004612c1a565b610293565b005b61014e610149366004612c1a565b61043e565b60405161011d9190612dc7565b610113610169366004612ea5565b61095a565b61018161017c366004612c1a565b610b60565b60405161011d9a99989796959493929190612ed5565b6101396101a5366004612fab565b611018565b610113607881565b6001546101c5906001600160a01b031681565b6040516001600160a01b03909116815260200161011d565b6101136101eb366004613027565b6001600160a01b03165f9081526006602052604090205490565b610113610213366004613027565b60066020525f908152604090205481565b6101396119c1565b61013961023a366004612c1a565b611e08565b61013961024d366004613040565b611f44565b610139610260366004612c1a565b6121df565b610113600581565b6002546101c5906001600160a01b031681565b6003546101c5906001600160a01b031681565b61029b6122af565b5f81815260056020526040812090600182015460ff1660048111156102c2576102c2612c31565b146103145760405162461bcd60e51b815260206004820181905260248201527f4d6174636820616c72656164792073746172746564206f7220736574746c656460448201526064015b60405180910390fd5b60788160190154610325919061308c565b42101561036c5760405162461bcd60e51b815260206004820152601560248201527413585d18da081b9bdd08195e1c1a5c9959081e595d605a1b604482015260640161030b565b60028054908201546003830154600480850154604051632b4380c560e01b81526001600160a01b0395861695632b4380c5956103b09590821694911692910161309f565b5f604051808303815f87803b1580156103c7575f80fd5b505af11580156103d9573d5f803e3d5ffd5b5050505060018101805460ff1916600417905560028101546001600160a01b03165f908152600660205260408082208290555183917f700135b4fe8746e2d2c85a9baa43c62887740aebfeb3a439f71a083fe5d5675991a25061043b60015f55565b50565b61044661295a565b5f8281526005602090815260409182902082516101408101909352805483526001810154909183019060ff16600481111561048357610483612c31565b600481111561049457610494612c31565b81526040805160c0808201835260028501546001600160a01b039081168352600386015481166020848101919091526004870154848601526005870154606080860191909152600688015460ff8082161515608080890191909152610100928390048216151560a0808a0191909152858b019890985288518088018a5260078c01548716815260088c01549096168686015260098b0154868a0152600a8b015486850152600b8b01548083161515918701919091529190910416151583860152858701929092528451600c8801805492830282018501909652938401818152919095019492939284928491908401828280156105ad57602002820191905f5260205f20905b815481526020019060010190808311610599575b505050505081526020016001820180548060200260200160405190810160405280929190818152602001828054801561063257602002820191905f5260205f20905f905b82829054906101000a900460ff16600281111561061057610610612c31565b8152602060019283018181049485019490930390920291018084116105f15790505b50505050508152602001600282018054806020026020016040519081016040528092919081815260200182805480156106aa57602002820191905f5260205f20905f905b825461010083900a900460070b81526020600f83018190049384019360010360089093019290920291018084116106765790505b505050505081526020016003820180548060200260200160405190810160405280929190818152602001828054801561072257602002820191905f5260205f20905f905b825461010083900a900460070b81526020600f83018190049384019360010360089093019290920291018084116106ee5790505b505050505081526020016004820154815250508152602001601182016040518060a00160405290815f820180548060200260200160405190810160405280929190818152602001828054801561079557602002820191905f5260205f20905b815481526020019060010190808311610781575b505050505081526020016001820180548060200260200160405190810160405280929190818152602001828054801561081a57602002820191905f5260205f20905f905b82829054906101000a900460ff1660028111156107f8576107f8612c31565b8152602060019283018181049485019490930390920291018084116107d95790505b505050505081526020016002820180548060200260200160405190810160405280929190818152602001828054801561089257602002820191905f5260205f20905f905b825461010083900a900460070b81526020600f830181900493840193600103600890930192909202910180841161085e5790505b505050505081526020016003820180548060200260200160405190810160405280929190818152602001828054801561090a57602002820191905f5260205f20905f905b825461010083900a900460070b81526020600f83018190049384019360010360089093019290920291018084116108d65790505b5050509183525050600491909101546020918201529082526016830154908201526017820154604082015260188201546001600160a01b0316606082015260199091015460809091015292915050565b5f6109636122af565b335f90815260066020526040902054156109b45760405162461bcd60e51b8152602060048201526012602482015271082d8e4cac2c8f240d2dc40c240dac2e8c6d60731b604482015260640161030b565b816109f25760405162461bcd60e51b815260206004820152600e60248201526d125b9d985b1a590818dbdb5b5a5d60921b604482015260640161030b565b60045f8154610a00906130c3565b9182905550600254604051634c294d4960e01b81526001600160a01b0387811660048301526024820187905233604483015260648201849052929350911690634c294d49906084015f604051808303815f87803b158015610a5f575f80fd5b505af1158015610a71573d5f803e3d5ffd5b5050505f8281526005602081815260408084208681556001808201805460ff19169055825160c081018452338082526001600160a01b038d168287018190528286018d9052606083018c90526080830184905260a09092018890526002840180546001600160a01b03199081168317909155600385018054909116909217909155600483018b90559482018990556006808301805461ffff191690921790915542601983015584865290925280842086905551909350909184917f18a47d8df22f178f89e665cc0fccf4ee175e91434c7b749c4a7607ffa4d33a679190a350610b5960015f55565b9392505050565b600560208181525f92835260409283902080546001820154855160c0808201885260028501546001600160a01b03908116835260038601548116838801526004860154838a015296850154606080840191909152600686015460ff8181161515608080870191909152610100928390048216151560a0808801919091528c518087018e5260078b01548d16815260088b0154909c168c8c015260098a01548c8e0152600a8a0154948c0194909452600b8901548083161515918c01919091529190910481161515898301528951600c88018054998a0282018501909b52918201888152959994169792969295949093928492849190840182828015610c8257602002820191905f5260205f20905b815481526020019060010190808311610c6e575b5050505050815260200160018201805480602002602001604051908101604052809291908181526020018280548015610d0757602002820191905f5260205f20905f905b82829054906101000a900460ff166002811115610ce557610ce5612c31565b815260206001928301818104948501949093039092029101808411610cc65790505b5050505050815260200160028201805480602002602001604051908101604052809291908181526020018280548015610d7f57602002820191905f5260205f20905f905b825461010083900a900460070b81526020600f8301819004938401936001036008909301929092029101808411610d4b5790505b5050505050815260200160038201805480602002602001604051908101604052809291908181526020018280548015610df757602002820191905f5260205f20905f905b825461010083900a900460070b81526020600f8301819004938401936001036008909301929092029101808411610dc35790505b5050505050815260200160048201548152505090806011016040518060a00160405290815f8201805480602002602001604051908101604052809291908181526020018280548015610e6657602002820191905f5260205f20905b815481526020019060010190808311610e52575b5050505050815260200160018201805480602002602001604051908101604052809291908181526020018280548015610eeb57602002820191905f5260205f20905f905b82829054906101000a900460ff166002811115610ec957610ec9612c31565b815260206001928301818104948501949093039092029101808411610eaa5790505b5050505050815260200160028201805480602002602001604051908101604052809291908181526020018280548015610f6357602002820191905f5260205f20905f905b825461010083900a900460070b81526020600f8301819004938401936001036008909301929092029101808411610f2f5790505b5050505050815260200160038201805480602002602001604051908101604052809291908181526020018280548015610fdb57602002820191905f5260205f20905f905b825461010083900a900460070b81526020600f8301819004938401936001036008909301929092029101808411610fa75790505b5050509183525050600491909101546020909101526016820154601783015460188401546019909401549293919290916001600160a01b0316908a565b6110206122af565b5f8681526005602052604090206002600182015460ff16600481111561104857611048612c31565b146110895760405162461bcd60e51b815260206004820152601160248201527013585d18da081b9bdd081cdd185c9d1959607a1b604482015260640161030b565b80601701544210156110cf5760405162461bcd60e51b815260206004820152600f60248201526e13585d18da081b9bdd08195b991959608a1b604482015260640161030b565b60028101546001600160a01b03163314806110f6575060078101546001600160a01b031633145b6111315760405162461bcd60e51b815260206004820152600c60248201526b2737ba103090383630bcb2b960a11b604482015260640161030b565b5f868686868660405160200161114b9594939291906130db565b60408051808303601f19018152919052805160209091012060028301549091506001600160a01b03163314801561121257600583015482146111c05760405162461bcd60e51b815260206004820152600e60248201526d125b9d985b1a59081c995d99585b60921b604482015260640161030b565b6006830154610100900460ff161561120d5760405162461bcd60e51b815260206004820152601060248201526f105b1c9958591e481c995d99585b195960821b604482015260640161030b565b6112a3565b600a83015482146112565760405162461bcd60e51b815260206004820152600e60248201526d125b9d985b1a59081c995d99585b60921b604482015260640161030b565b600b830154610100900460ff16156112a35760405162461bcd60e51b815260206004820152601060248201526f105b1c9958591e481c995d99585b195960821b604482015260640161030b565b600154604051639f11194f60e01b81525f9182916001600160a01b0390911690639f11194f906112d9908d908d90600401613142565b6040805180830381865afa1580156112f3573d5f803e3d5ffd5b505050506040513d601f19601f820116820180604052508101906113179190613188565b915091508161135c5760405162461bcd60e51b8152602060048201526011602482015270496e76616c696420706f7274666f6c696f60781b604482015260640161030b565b6113978888808060200260200160405190810160405280939291908181526020018383602002808284375f920191909152506122d792505050565b6113d35760405162461bcd60e51b815260206004820152600d60248201526c496e76616c696420726f6c657360981b604482015260640161030b565b60408051600780825261010082019092525f916020820160e080368337505060408051600780825261010082019092529293505f9291506020820160e0803683370190505090505f5b600781101561161c576001545f906001600160a01b0316632cc3ce808f8f8581811061144a5761144a6131c6565b905060200201356040518263ffffffff1660e01b815260040161146f91815260200190565b5f60405180830381865afa158015611489573d5f803e3d5ffd5b505050506040513d5f823e601f3d908101601f191682016040526114b09190810190613234565b60035481519192505f916001600160a01b039091169063a4ae35e0906114d86078600561308c565b6114e390603c61308c565b6040516001600160e01b031960e085901b16815260048101929092526024820152604401608060405180830381865afa158015611522573d5f803e3d5ffd5b505050506040513d601f19601f820116820180604052508101906115469190613337565b9050805f015185848151811061155e5761155e6131c6565b60079290920b60209283029190910190910152600354825160405163052571af60e51b81526004810191909152600560248201525f916001600160a01b03169063a4ae35e090604401608060405180830381865afa1580156115c2573d5f803e3d5ffd5b505050506040513d601f19601f820116820180604052508101906115e69190613337565b9050805f01518585815181106115fe576115fe6131c6565b60079290920b6020928302919091019091015250505060010161141c565b5060408051600780825261010082019092525f916020820160e0803683370190505090505f5b60078110156116ac57611687848281518110611660576116606131c6565b602002602001015184838151811061167a5761167a6131c6565b602002602001015161239a565b828281518110611699576116996131c6565b6020908102919091010152600101611642565b505f6116ea828d8d808060200260200160405190810160405280939291908181526020018383602002808284375f9201919091525061241d92505050565b9050861561181b576040518060a001604052808f8f808060200260200160405190810160405280939291908181526020018383602002808284375f81840152601f19601f8201169050808301925050505050505081526020018d8d808060200260200160405190810160405280939291908181526020018383602002808284375f92019190915250505090825250602080820187905260408201869052606090910183905281518051600c8d01926117a6928492910190612a6a565b5060208281015180516117bf9260018501920190612ab3565b50604082015180516117db916002840191602090910190612b5d565b50606082015180516117f7916003840191602090910190612b5d565b506080919091015160049091015560068901805461ff001916610100179055611940565b6040518060a001604052808f8f808060200260200160405190810160405280939291908181526020018383602002808284375f81840152601f19601f8201169050808301925050505050505081526020018d8d808060200260200160405190810160405280939291908181526020018383602002808284375f9201919091525050509082525060208082018790526040820186905260609091018390528151805160118d01926118cf928492910190612a6a565b5060208281015180516118e89260018501920190612ab3565b5060408201518051611904916002840191602090910190612b5d565b5060608201518051611920916003840191602090910190612b5d565b5060809190910151600490910155600b8901805461ff0019166101001790555b336001600160a01b03168f7f672e5933f8d781e4eb1872b8bd9f8587e3bea4755364cee5ea569ea2dee5787660405160405180910390a36006890154610100900460ff1680156119995750600b890154610100900460ff165b156119a7576119a78f61250b565b5050505050505050506119b960015f55565b505050505050565b6119c96122af565b335f9081526006602052604081205490819003611a1a5760405162461bcd60e51b815260206004820152600f60248201526e09cde40c2c6e8d2ecca40dac2e8c6d608b1b604482015260640161030b565b5f81815260056020526040812090600182015460ff166004811115611a4157611a41612c31565b03611b6c5760788160190154611a57919061308c565b421015611a9a5760405162461bcd60e51b815260206004820152601160248201527013585d18da081b9bdd08195e1c1a5c9959607a1b604482015260640161030b565b60028101546001600160a01b03163303611b2f5760028054908201546003830154600480850154604051632b4380c560e01b81526001600160a01b0395861695632b4380c595611af29590821694911692910161309f565b5f604051808303815f87803b158015611b09575f80fd5b505af1158015611b1b573d5f803e3d5ffd5b5050505060018101805460ff191660041790555b335f908152600660205260408082208290555183917f700135b4fe8746e2d2c85a9baa43c62887740aebfeb3a439f71a083fe5d5675991a2611dfb565b60018082015460ff166004811115611b8657611b86612c31565b03611db357611b97607860026133ac565b8160190154611ba6919061308c565b421015611be95760405162461bcd60e51b815260206004820152601160248201527013585d18da081b9bdd08195e1c1a5c9959607a1b604482015260640161030b565b60028101546001600160a01b03163303611c8b5760028054908201546003830154600480850154604051632b4380c560e01b81526001600160a01b0395861695632b4380c595611c419590821694911692910161309f565b5f604051808303815f87803b158015611c58575f80fd5b505af1158015611c6a573d5f803e3d5ffd5b50505060028201546001600160a01b03165f90815260066020526040812055505b60078101546001600160a01b03163303611d2d57600254600782015460088301546009840154604051632b4380c560e01b81526001600160a01b0394851694632b4380c594611ce3949082169391169160040161309f565b5f604051808303815f87803b158015611cfa575f80fd5b505af1158015611d0c573d5f803e3d5ffd5b50505060078201546001600160a01b03165f90815260066020526040812055505b60028101546001600160a01b03165f90815260066020526040902054158015611d6f575060078101546001600160a01b03165f90815260066020526040902054155b15611d845760018101805460ff191660041790555b60405182907f700135b4fe8746e2d2c85a9baa43c62887740aebfeb3a439f71a083fe5d56759905f90a2611dfb565b60405162461bcd60e51b815260206004820152601960248201527f4d61746368207374617465206e6f7420636c65617261626c6500000000000000604482015260640161030b565b5050611e0660015f55565b565b611e106122af565b5f81815260056020526040902060018082015460ff166004811115611e3757611e37612c31565b14611e765760405162461bcd60e51b815260206004820152600f60248201526e4d61746368206e6f7420726561647960881b604482015260640161030b565b60028101546001600160a01b0316331480611e9d575060078101546001600160a01b031633145b611ed85760405162461bcd60e51b815260206004820152600c60248201526b2737ba103090383630bcb2b960a11b604482015260640161030b565b60018101805460ff191660021790554260168201819055611efb9060789061308c565b6017820155601681015460405190815282907fc21a199ff4f6a91b067a8a76292ba2e24c5202ddfbc8f5f5a68823666a51e6e99060200160405180910390a25061043b60015f55565b611f4c6122af565b335f9081526006602052604090205415611f9d5760405162461bcd60e51b8152602060048201526012602482015271082d8e4cac2c8f240d2dc40c240dac2e8c6d60731b604482015260640161030b565b80611fdb5760405162461bcd60e51b815260206004820152600e60248201526d125b9d985b1a590818dbdb5b5a5d60921b604482015260640161030b565b5f84815260056020526040812090600182015460ff16600481111561200257612002612c31565b146120455760405162461bcd60e51b81526020600482015260136024820152724d61746368206e6f7420617661696c61626c6560681b604482015260640161030b565b6002810154336001600160a01b039091160361209a5760405162461bcd60e51b815260206004820152601460248201527321b0b73737ba10383630bc903cb7bab939b2b63360611b604482015260640161030b565b600254604051634c294d4960e01b81526001600160a01b038681166004830152602482018690523360448301526064820188905290911690634c294d49906084015f604051808303815f87803b1580156120f2575f80fd5b505af1158015612104573d5f803e3d5ffd5b50506040805160c081018252338082526001600160a01b03891660208084018290528385018a9052606084018990526001608085018190525f60a09095018590526007890180546001600160a01b0319908116861790915560088a018054909116909317909255600988018a9055600a8801899055600b8801805461ffff191683179055878201805460ff1916909217909155818352600690528282208a905591519193508892507f50d6e5d288766a7340b6110b6738cac822c48c128a47399df2fad303041f8d5091a3506121d960015f55565b50505050565b6121e76122af565b5f81815260056020526040902060028101546001600160a01b031633146122505760405162461bcd60e51b815260206004820152601760248201527f4f6e6c792063726561746f722063616e2063616e63656c000000000000000000604482015260640161030b565b5f600182015460ff16600481111561226a5761226a612c31565b1461036c5760405162461bcd60e51b815260206004820152601560248201527413585d18da08185b1c9958591e481cdd185c9d1959605a1b604482015260640161030b565b60025f54036122d157604051633ee5aeb560e01b815260040160405180910390fd5b60025f55565b5f81516007146122e857505f919050565b5f805f5b8451811015612381576002858281518110612309576123096131c6565b6020026020010151600281111561232257612322612c31565b036123395782612331816130c3565b935050612379565b600185828151811061234d5761234d6131c6565b6020026020010151600281111561236657612366612c31565b036123795781612375816130c3565b9250505b6001016122ec565b508160011480156123925750806001145b949350505050565b5f808360070b136123ed5760405162461bcd60e51b815260206004820152601c60248201527f5374617274207072696365206d75737420626520706f73697469766500000000604482015260640161030b565b5f8360070b8360070b61240091906133c3565b9050600784900b612413612710836133e2565b6123929190613411565b5f81518351146124615760405162461bcd60e51b815260206004820152600f60248201526e098cadccee8d040dad2e6dac2e8c6d608b1b604482015260640161030b565b82516007146124a75760405162461bcd60e51b81526020600482015260126024820152714d757374206861766520372061737365747360701b604482015260640161030b565b505f805b8351811015612504576124f08482815181106124c9576124c96131c6565b60200260200101518483815181106124e3576124e36131c6565b60200260200101516128c7565b6124fa9083613449565b91506001016124ab565b5092915050565b5f8181526005602052604081206010810154601582015491929161252f91906128e0565b6001838101805460ff1916600417905590915060ff8216900361265a576002808301546018840180546001600160a01b0319166001600160a01b0392831690811790915591546003850154600480870154604051632b4380c560e01b815293851695632b4380c5956125a595919416920161309f565b5f604051808303815f87803b1580156125bc575f80fd5b505af11580156125ce573d5f803e3d5ffd5b5050600280546007860154918601546008870154600988015460405163230dc78760e21b81526001600160a01b03958616600482015292851660248401529084166044830152606482015291169250638c371e1c91506084015b5f604051808303815f87803b15801561263f575f80fd5b505af1158015612651573d5f803e3d5ffd5b50505050612845565b8060ff1660020361274f5760078201546018830180546001600160a01b0319166001600160a01b0392831690811790915560025460088501546009860154604051632b4380c560e01b815292851694632b4380c5946126c2949093909116919060040161309f565b5f604051808303815f87803b1580156126d9575f80fd5b505af11580156126eb573d5f803e3d5ffd5b505060028054908501546007860154600387015460048089015460405163230dc78760e21b81526001600160a01b039586169281019290925292841660248201529083166044820152606481019190915291169250638c371e1c9150608401612628565b6018820180546001600160a01b031916905560028054908301546003840154600480860154604051632b4380c560e01b81526001600160a01b0395861695632b4380c5956127a59590821694911692910161309f565b5f604051808303815f87803b1580156127bc575f80fd5b505af11580156127ce573d5f803e3d5ffd5b5050600254600785015460088601546009870154604051632b4380c560e01b81526001600160a01b039485169650632b4380c5955061281794938416939092169160040161309f565b5f604051808303815f87803b15801561282e575f80fd5b505af1158015612840573d5f803e3d5ffd5b505050505b60028201546001600160a01b039081165f90815260066020908152604080832083905560078601548416835280832092909255601885015460108601546015870154845191825292810192909252825193169286927f1fc410bdd49f77d51c03f857ea2d53d582a0e2b9a693caa99798dc76172bdf65928290030190a3505050565b5f806128d28361290a565b9050606461241382866133e2565b5f818313156128f157506001612904565b8282131561290157506002612904565b505f5b92915050565b5f600282600281111561291f5761291f612c31565b0361292c575060c8919050565b600182600281111561294057612940612c31565b0361294d57506096919050565b506064919050565b919050565b6040805161014081019091525f808252602082019081526040805160c0810182525f8082526020828101829052928201819052606082018190526080820181905260a082015291019081526040805160c0810182525f8082526020828101829052928201819052606082018190526080820181905260a08201529101908152602001612a0d6040518060a00160405280606081526020016060815260200160608152602001606081526020015f81525090565b8152602001612a436040518060a00160405280606081526020016060815260200160608152602001606081526020015f81525090565b81526020015f81526020015f81526020015f6001600160a01b031681526020015f81525090565b828054828255905f5260205f20908101928215612aa3579160200282015b82811115612aa3578251825591602001919060010190612a88565b50612aaf929150612c06565b5090565b828054828255905f5260205f2090601f01602090048101928215612aa3579160200282015f5b83821115612b2457835183826101000a81548160ff02191690836002811115612b0457612b04612c31565b021790555092602001926001016020815f01049283019260010302612ad9565b8015612b505782816101000a81549060ff02191690556001016020815f01049283019260010302612b24565b5050612aaf929150612c06565b828054828255905f5260205f2090600301600490048101928215612aa3579160200282015f5b83821115612bd257835183826101000a81548167ffffffffffffffff021916908360070b67ffffffffffffffff1602179055509260200192600801602081600701049283019260010302612b83565b8015612b505782816101000a81549067ffffffffffffffff0219169055600801602081600701049283019260010302612bd2565b5b80821115612aaf575f8155600101612c07565b5f60208284031215612c2a575f80fd5b5035919050565b634e487b7160e01b5f52602160045260245ffd5b60058110612c5557612c55612c31565b9052565b80516001600160a01b03908116835260208083015190911690830152604080820151908301526060808201519083015260808082015115159083015260a0908101511515910152565b60038110612c5557612c55612c31565b5f815180845260208085019450602084015f5b83811015612ce857612cd8878351612ca2565b9582019590820190600101612cc5565b509495945050505050565b5f815180845260208085019450602084015f5b83811015612ce857815160070b87529582019590820190600101612d06565b805160a080845281519084018190525f916020919082019060c0860190845b81811015612d6057835183529284019291840191600101612d44565b5050602085015192508581036020870152612d7b8184612cb2565b9250505060408301518482036040860152612d968282612cf3565b91505060608301518482036060860152612db08282612cf3565b915050608083015160808501528091505092915050565b60208152815160208201525f6020830151612de56040840182612c45565b506040830151612df86060840182612c59565b506060830151610120612e0d81850183612c59565b60808501519150610280806101e0860152612e2c6102a0860184612d25565b925060a0860151601f1986850301610200870152612e4a8482612d25565b93505060c086015161022086015260e0860151610240860152610100860151612e7f6102608701826001600160a01b03169052565b5094015192909301919091525090565b80356001600160a01b0381168114612955575f80fd5b5f805f60608486031215612eb7575f80fd5b612ec084612e8f565b95602085013595506040909401359392505050565b5f6102808c8352612ee9602084018d612c45565b612ef6604084018c612c59565b612f0461010084018b612c59565b806101c0840152612f178184018a612d25565b90508281036101e0840152612f2c8189612d25565b61020084019790975250506102208101939093526001600160a01b0391909116610240830152610260909101529695505050505050565b5f8083601f840112612f73575f80fd5b50813567ffffffffffffffff811115612f8a575f80fd5b6020830191508360208260051b8501011115612fa4575f80fd5b9250929050565b5f805f805f8060808789031215612fc0575f80fd5b86359550602087013567ffffffffffffffff80821115612fde575f80fd5b612fea8a838b01612f63565b90975095506040890135915080821115613002575f80fd5b5061300f89828a01612f63565b979a9699509497949695606090950135949350505050565b5f60208284031215613037575f80fd5b610b5982612e8f565b5f805f8060808587031215613053575f80fd5b8435935061306360208601612e8f565b93969395505050506040820135916060013590565b634e487b7160e01b5f52601160045260245ffd5b8082018082111561290457612904613078565b6001600160a01b039384168152919092166020820152604081019190915260600190565b5f600182016130d4576130d4613078565b5060010190565b5f6001600160fb1b038611156130ef575f80fd5b8560051b808884378201855f5b8681101561313057813560038110613112575f80fd5b61311c8482612ca2565b5060209283019291909101906001016130fc565b50509283525050602001949350505050565b602080825281018290525f6001600160fb1b03831115613160575f80fd5b8260051b80856040850137919091016040019392505050565b80518015158114612955575f80fd5b5f8060408385031215613199575f80fd5b6131a283613179565b9150602083015190509250929050565b634e487b7160e01b5f52604160045260245ffd5b634e487b7160e01b5f52603260045260245ffd5b6040516080810167ffffffffffffffff811182821017156131fd576131fd6131b2565b60405290565b604051601f8201601f1916810167ffffffffffffffff8111828210171561322c5761322c6131b2565b604052919050565b5f6020808385031215613245575f80fd5b825167ffffffffffffffff8082111561325c575f80fd5b908401906080828703121561326f575f80fd5b6132776131da565b825181528383015161ffff8116811461328e575f80fd5b8185015261329e60408401613179565b60408201526060830151828111156132b4575f80fd5b80840193505086601f8401126132c8575f80fd5b8251828111156132da576132da6131b2565b6132ec601f8201601f19168601613203565b92508083528785828601011115613301575f80fd5b5f5b8181101561331e578481018601518482018701528501613303565b505f908301909401939093526060830152509392505050565b5f60808284031215613347575f80fd5b61334f6131da565b82518060070b811461335f575f80fd5b8152602083015167ffffffffffffffff8116811461337b575f80fd5b60208201526040830151600381900b8114613394575f80fd5b60408201526060928301519281019290925250919050565b808202811582820484141761290457612904613078565b8181035f83128015838313168383128216171561250457612504613078565b8082025f8212600160ff1b841416156133fd576133fd613078565b818105831482151761290457612904613078565b5f8261342b57634e487b7160e01b5f52601260045260245ffd5b600160ff1b82145f198414161561344457613444613078565b500590565b8082018281125f83128015821682158216171561346857613468613078565b50509291505056fea264697066735822122032cd9a2e027ab67ee4782e4fed4cc0180b2ddd11dda1e84bfe843af8472e80fb64736f6c63430008180033","linkReferences":{}},"methodIdentifiers":{"MATCH_DURATION()":"8d3bf1b3","MAX_PRICE_STALENESS()":"d6913b32","assetRegistry()":"979d7e86","cancelMatch(uint256)":"d02c8cdf","clearStuckMatch()":"b8c06d04","createMatch(address,uint256,bytes32)":"3ed6110d","forceExpireMatch(uint256)":"10a95ae3","getMatch(uint256)":"3d092b3d","getPlayerActiveMatch(address)":"a1896605","joinMatch(uint256,address,uint256,bytes32)":"cece3cd4","matchCounter()":"01fd1951","matches(uint256)":"4768d4ef","nftVault()":"dbfb7d81","playerActiveMatch(address)":"ab9bcfc0","pythOracle()":"f5d6ac90","revealAndSettle(uint256,bytes32[],uint8[],bytes32)":"60c8b6c0","startMatch(uint256)":"bf725a84"},"id":43}