{"abi":[{"type":"constructor","inputs":[],"stateMutability":"nonpayable"},{"type":"function","name":"authorizedContracts","inputs":[{"name":"","type":"address","internalType":"address"}],"outputs":[{"name":"","type":"bool","internalType":"bool"}],"stateMutability":"view"},{"type":"function","name":"getStakedNFT","inputs":[{"name":"owner","type":"address","internalType":"address"},{"name":"nftContract","type":"address","internalType":"address"},{"name":"tokenId","type":"uint256","internalType":"uint256"}],"outputs":[{"name":"","type":"tuple","internalType":"struct NFTVault.StakedNFT","components":[{"name":"nftContract","type":"address","internalType":"address"},{"name":"tokenId","type":"uint256","internalType":"uint256"},{"name":"owner","type":"address","internalType":"address"},{"name":"matchId","type":"uint256","internalType":"uint256"},{"name":"isStaked","type":"bool","internalType":"bool"}]}],"stateMutability":"view"},{"type":"function","name":"isNFTStaked","inputs":[{"name":"owner","type":"address","internalType":"address"},{"name":"nftContract","type":"address","internalType":"address"},{"name":"tokenId","type":"uint256","internalType":"uint256"}],"outputs":[{"name":"","type":"bool","internalType":"bool"}],"stateMutability":"view"},{"type":"function","name":"onERC721Received","inputs":[{"name":"","type":"address","internalType":"address"},{"name":"","type":"address","internalType":"address"},{"name":"","type":"uint256","internalType":"uint256"},{"name":"","type":"bytes","internalType":"bytes"}],"outputs":[{"name":"","type":"bytes4","internalType":"bytes4"}],"stateMutability":"nonpayable"},{"type":"function","name":"owner","inputs":[],"outputs":[{"name":"","type":"address","internalType":"address"}],"stateMutability":"view"},{"type":"function","name":"releaseNFT","inputs":[{"name":"owner","type":"address","internalType":"address"},{"name":"nftContract","type":"address","internalType":"address"},{"name":"tokenId","type":"uint256","internalType":"uint256"}],"outputs":[],"stateMutability":"nonpayable"},{"type":"function","name":"renounceOwnership","inputs":[],"outputs":[],"stateMutability":"nonpayable"},{"type":"function","name":"setAuthorizedContract","inputs":[{"name":"contractAddress","type":"address","internalType":"address"},{"name":"authorized","type":"bool","internalType":"bool"}],"outputs":[],"stateMutability":"nonpayable"},{"type":"function","name":"setWhitelistedCollection","inputs":[{"name":"nftContract","type":"address","internalType":"address"},{"name":"whitelisted","type":"bool","internalType":"bool"}],"outputs":[],"stateMutability":"nonpayable"},{"type":"function","name":"stakeNFT","inputs":[{"name":"nftContract","type":"address","internalType":"address"},{"name":"tokenId","type":"uint256","internalType":"uint256"},{"name":"owner","type":"address","internalType":"address"},{"name":"matchId","type":"uint256","internalType":"uint256"}],"outputs":[],"stateMutability":"nonpayable"},{"type":"function","name":"stakedNFTs","inputs":[{"name":"","type":"address","internalType":"address"},{"name":"","type":"address","internalType":"address"},{"name":"","type":"uint256","internalType":"uint256"}],"outputs":[{"name":"nftContract","type":"address","internalType":"address"},{"name":"tokenId","type":"uint256","internalType":"uint256"},{"name":"owner","type":"address","internalType":"address"},{"name":"matchId","type":"uint256","internalType":"uint256"},{"name":"isStaked","type":"bool","internalType":"bool"}],"stateMutability":"view"},{"type":"function","name":"transferOwnership","inputs":[{"name":"newOwner","type":"address","internalType":"address"}],"outputs":[],"stateMutability":"nonpayable"},{"type":"function","name":"transferToWinner","inputs":[{"name":"loser","type":"address","internalType":"address"},{"name":"winner","type":"address","internalType":"address"},{"name":"nftContract","type":"address","internalType":"address"},{"name":"tokenId","type":"uint256","internalType":"uint256"}],"outputs":[],"stateMutability":"nonpayable"},{"type":"function","name":"whitelistedCollections","inputs":[{"name":"","type":"address","internalType":"address"}],"outputs":[{"name":"","type":"bool","internalType":"bool"}],"stateMutability":"view"},{"type":"event","name":"CollectionWhitelisted","inputs":[{"name":"nftContract","type":"address","indexed":true,"internalType":"address"},{"name":"whitelisted","type":"bool","indexed":false,"internalType":"bool"}],"anonymous":false},{"type":"event","name":"ContractAuthorized","inputs":[{"name":"contractAddress","type":"address","indexed":true,"internalType":"address"},{"name":"authorized","type":"bool","indexed":false,"internalType":"bool"}],"anonymous":false},{"type":"event","name":"NFTReleased","inputs":[{"name":"to","type":"address","indexed":true,"internalType":"address"},{"name":"nftContract","type":"address","indexed":true,"internalType":"address"},{"name":"tokenId","type":"uint256","indexed":true,"internalType":"uint256"},{"name":"matchId","type":"uint256","indexed":false,"internalType":"uint256"}],"anonymous":false},{"type":"event","name":"NFTStaked","inputs":[{"name":"owner","type":"address","indexed":true,"internalType":"address"},{"name":"nftContract","type":"address","indexed":true,"internalType":"address"},{"name":"tokenId","type":"uint256","indexed":true,"internalType":"uint256"},{"name":"matchId","type":"uint256","indexed":false,"internalType":"uint256"}],"anonymous":false},{"type":"event","name":"NFTTransferred","inputs":[{"name":"from","type":"address","indexed":true,"internalType":"address"},{"name":"to","type":"address","indexed":true,"internalType":"address"},{"name":"nftContract","type":"address","indexed":true,"internalType":"address"},{"name":"tokenId","type":"uint256","indexed":false,"internalType":"uint256"},{"name":"matchId","type":"uint256","indexed":false,"internalType":"uint256"}],"anonymous":false},{"type":"event","name":"OwnershipTransferred","inputs":[{"name":"previousOwner","type":"address","indexed":true,"internalType":"address"},{"name":"newOwner","type":"address","indexed":true,"internalType":"address"}],"anonymous":false},{"type":"error","name":"OwnableInvalidOwner","inputs":[{"name":"owner","type":"address","internalType":"address"}]},{"type":"error","name":"OwnableUnauthorizedAccount","inputs":[{"name":"account","type":"address","internalType":"address"}]},{"type":"error","name":"ReentrancyGuardReentrantCall","inputs":[]}],"bytecode":{"object":"0x608060405234801561000f575f80fd5b50338061003557604051631e4fbdf760e01b81525f600482015260240160405180910390fd5b61003e81610048565b5060018055610097565b5f80546001600160a01b038381166001600160a01b0319831681178455604051919092169283917f8be0079c531659141344cd1fd0a4f28419497f9722a3daafe3b4186f6b6457e09190a35050565b611004806100a45f395ff3fe608060405234801561000f575f80fd5b50600436106100e5575f3560e01c806379d4f25711610088578063980d81c111610063578063980d81c114610304578063d5b9221b14610398578063f2fa7392146103ba578063f2fde38b146103cd575f80fd5b806379d4f257146101df5780638c371e1c146102d75780638da5cb5b146102ea575f80fd5b8063499b84dd116100c3578063499b84dd1461014d5780634c294d49146101a25780634f05cbd8146101b5578063715018a6146101d7575f80fd5b8063078e94ca146100e9578063150b7a02146100fe5780632b4380c51461013a575b5f80fd5b6100fc6100f7366004610db2565b6103e0565b005b61011c61010c366004610dff565b630a85bd0160e11b949350505050565b6040516001600160e01b031990911681526020015b60405180910390f35b6100fc610148366004610ed4565b610499565b61019261015b366004610ed4565b6001600160a01b039283165f9081526002602090815260408083209490951682529283528381209181529152206004015460ff1690565b6040519015158152602001610131565b6100fc6101b0366004610f0d565b610676565b6101926101c3366004610f4e565b60036020525f908152604090205460ff1681565b6100fc6109b9565b61028d6101ed366004610ed4565b6040805160a0810182525f80825260208201819052918101829052606081018290526080810191909152506001600160a01b038084165f90815260026020818152604080842087861685528252808420868552825292839020835160a0810185528154861681526001820154928101929092529182015490931691830191909152600381015460608301526004015460ff16151560808201529392505050565b6040805182516001600160a01b039081168252602080850151908301528383015116918101919091526060808301519082015260809182015115159181019190915260a001610131565b6100fc6102e5366004610f6e565b6109cc565b5f546040516001600160a01b039091168152602001610131565b61035f610312366004610ed4565b600260208181525f9485526040808620825293855283852090529083529120805460018201549282015460038301546004909301546001600160a01b039283169493919092169160ff1685565b604080516001600160a01b039687168152602081019590955292909416918301919091526060820152901515608082015260a001610131565b6101926103a6366004610f4e565b60046020525f908152604090205460ff1681565b6100fc6103c8366004610db2565b610c00565b6100fc6103db366004610f4e565b610cb5565b6103e8610cf2565b6001600160a01b03821661043a5760405162461bcd60e51b8152602060048201526014602482015273125b9d985b1a59081391950818dbdb9d1c9858dd60621b60448201526064015b60405180910390fd5b6001600160a01b0382165f81815260036020908152604091829020805460ff191685151590811790915591519182527f39921e5677c943b0b7f6c29ab86b823c5daa404cb1a0a7e470670595761803c791015b60405180910390a25050565b335f9081526004602052604090205460ff16806104bf57505f546001600160a01b031633145b6104db5760405162461bcd60e51b815260040161043190610fa6565b6104e3610d1e565b6001600160a01b038084165f9081526002602090815260408083209386168352928152828220848352905220600481015460ff166105545760405162461bcd60e51b815260206004820152600e60248201526d139195081b9bdd081cdd185ad95960921b6044820152606401610431565b6003818101546001600160a01b038681165f818152600260208181526040808420958b168085529582528084208a855290915280832080546001600160a01b03199081168255600182018590559281018054909316909255958101919091556004908101805460ff191690559351632142170760e11b8152309481019490945260248401526044830185905290916342842e0e906064015f604051808303815f87803b158015610602575f80fd5b505af1158015610614573d5f803e3d5ffd5b5050505082846001600160a01b0316866001600160a01b03167f9e4737e975f458331a69febe3c95a72685013e3334bda3d588f6a8107a8311008460405161065e91815260200190565b60405180910390a4505061067160018055565b505050565b335f9081526004602052604090205460ff168061069c57505f546001600160a01b031633145b6106b85760405162461bcd60e51b815260040161043190610fa6565b6106c0610d1e565b6001600160a01b0384165f9081526003602052604090205460ff166107275760405162461bcd60e51b815260206004820152601a60248201527f436f6c6c656374696f6e206e6f742077686974656c69737465640000000000006044820152606401610431565b6001600160a01b03821661076d5760405162461bcd60e51b815260206004820152600d60248201526c24b73b30b634b21037bbb732b960991b6044820152606401610431565b6001600160a01b038083165f90815260026020908152604080832093881683529281528282208683529052206004015460ff16156107de5760405162461bcd60e51b815260206004820152600e60248201526d105b1c9958591e481cdd185ad95960921b6044820152606401610431565b604051632142170760e11b81526001600160a01b038381166004830152306024830152604482018590528516906342842e0e906064015f604051808303815f87803b15801561082b575f80fd5b505af115801561083d573d5f803e3d5ffd5b505050506040518060a00160405280856001600160a01b03168152602001848152602001836001600160a01b031681526020018281526020016001151581525060025f846001600160a01b03166001600160a01b031681526020019081526020015f205f866001600160a01b03166001600160a01b031681526020019081526020015f205f8581526020019081526020015f205f820151815f015f6101000a8154816001600160a01b0302191690836001600160a01b03160217905550602082015181600101556040820151816002015f6101000a8154816001600160a01b0302191690836001600160a01b03160217905550606082015181600301556080820151816004015f6101000a81548160ff02191690831515021790555090505082846001600160a01b0316836001600160a01b03167feec9ba5bfbc4283796482d3f7c7e891a5375d4e02efefac262ba00280fc2608d846040516109a291815260200190565b60405180910390a46109b360018055565b50505050565b6109c1610cf2565b6109ca5f610d48565b565b335f9081526004602052604090205460ff16806109f257505f546001600160a01b031633145b610a0e5760405162461bcd60e51b815260040161043190610fa6565b610a16610d1e565b6001600160a01b038316610a5d5760405162461bcd60e51b815260206004820152600e60248201526d24b73b30b634b2103bb4b73732b960911b6044820152606401610431565b6001600160a01b038085165f9081526002602090815260408083209386168352928152828220848352905220600481015460ff16610ace5760405162461bcd60e51b815260206004820152600e60248201526d139195081b9bdd081cdd185ad95960921b6044820152606401610431565b6003818101546001600160a01b038781165f9081526002602081815260408084208a86168086529083528185208a865290925280842080546001600160a01b03199081168255600182018690559381018054909416909355958201929092556004908101805460ff191690559351632142170760e11b8152309481019490945290871660248401526044830185905290916342842e0e906064015f604051808303815f87803b158015610b7f575f80fd5b505af1158015610b91573d5f803e3d5ffd5b50505050836001600160a01b0316856001600160a01b0316876001600160a01b03167fa17fea5a60a5d96718e8bb88b07be33e42271a2e5446c825688c8d6416b47a7f8685604051610bed929190918252602082015260400190565b60405180910390a450506109b360018055565b610c08610cf2565b6001600160a01b038216610c5e5760405162461bcd60e51b815260206004820152601860248201527f496e76616c696420636f6e7472616374206164647265737300000000000000006044820152606401610431565b6001600160a01b0382165f81815260046020908152604091829020805460ff191685151590811790915591519182527f3213ab8ec2ed122402f038736b41878b69ae9f61f49a7edd0666bce891d29fc9910161048d565b610cbd610cf2565b6001600160a01b038116610ce657604051631e4fbdf760e01b81525f6004820152602401610431565b610cef81610d48565b50565b5f546001600160a01b031633146109ca5760405163118cdaa760e01b8152336004820152602401610431565b600260015403610d4157604051633ee5aeb560e01b815260040160405180910390fd5b6002600155565b5f80546001600160a01b038381166001600160a01b0319831681178455604051919092169283917f8be0079c531659141344cd1fd0a4f28419497f9722a3daafe3b4186f6b6457e09190a35050565b80356001600160a01b0381168114610dad575f80fd5b919050565b5f8060408385031215610dc3575f80fd5b610dcc83610d97565b915060208301358015158114610de0575f80fd5b809150509250929050565b634e487b7160e01b5f52604160045260245ffd5b5f805f8060808587031215610e12575f80fd5b610e1b85610d97565b9350610e2960208601610d97565b925060408501359150606085013567ffffffffffffffff80821115610e4c575f80fd5b818701915087601f830112610e5f575f80fd5b813581811115610e7157610e71610deb565b604051601f8201601f19908116603f01168101908382118183101715610e9957610e99610deb565b816040528281528a6020848701011115610eb1575f80fd5b826020860160208301375f60208483010152809550505050505092959194509250565b5f805f60608486031215610ee6575f80fd5b610eef84610d97565b9250610efd60208501610d97565b9150604084013590509250925092565b5f805f8060808587031215610f20575f80fd5b610f2985610d97565b935060208501359250610f3e60408601610d97565b9396929550929360600135925050565b5f60208284031215610f5e575f80fd5b610f6782610d97565b9392505050565b5f805f8060808587031215610f81575f80fd5b610f8a85610d97565b9350610f9860208601610d97565b9250610f3e60408601610d97565b6020808252600e908201526d139bdd08185d5d1a1bdc9a5e995960921b60408201526060019056fea264697066735822122001f314d067c6865b80f1fb200f66e4dffa8929306f6cade576f2deea681b2b5464736f6c63430008180033","linkReferences":{}},"methodIdentifiers":{"authorizedContracts(address)":"d5b9221b","getStakedNFT(address,address,uint256)":"79d4f257","isNFTStaked(address,address,uint256)":"499b84dd","onERC721Received(address,address,uint256,bytes)":"150b7a02","owner()":"8da5cb5b","releaseNFT(address,address,uint256)":"2b4380c5","renounceOwnership()":"715018a6","setAuthorizedContract(address,bool)":"f2fa7392","setWhitelistedCollection(address,bool)":"078e94ca","stakeNFT(address,uint256,address,uint256)":"4c294d49","stakedNFTs(address,address,uint256)":"980d81c1","transferOwnership(address)":"f2fde38b","transferToWinner(address,address,address,uint256)":"8c371e1c","whitelistedCollections(address)":"4f05cbd8"},"id":33}